{
	"data": {
		"bytecode": {
			"linkReferences": {},
			"object": "608060405234801562000010575f80fd5b506040516200327438038062003274833981810160405281019062000036919062000399565b308584815f9081620000499190620006c7565b5080600190816200005b9190620006c7565b5050505f73ffffffffffffffffffffffffffffffffffffffff168173ffffffffffffffffffffffffffffffffffffffff1603620000d1575f6040517f1e4fbdf7000000000000000000000000000000000000000000000000000000008152600401620000c89190620007ee565b60405180910390fd5b620000e2816200011960201b60201c565b5081600c8190555080600b9081620000fb9190620006c7565b5083600d90816200010d9190620006c7565b50505050505062000809565b5f600a5f9054906101000a900473ffffffffffffffffffffffffffffffffffffffff16905081600a5f6101000a81548173ffffffffffffffffffffffffffffffffffffffff021916908373ffffffffffffffffffffffffffffffffffffffff1602179055508173ffffffffffffffffffffffffffffffffffffffff168173ffffffffffffffffffffffffffffffffffffffff167f8be0079c531659141344cd1fd0a4f28419497f9722a3daafe3b4186f6b6457e060405160405180910390a35050565b5f604051905090565b5f80fd5b5f80fd5b5f80fd5b5f80fd5b5f601f19601f8301169050919050565b7f4e487b71000000000000000000000000000000000000000000000000000000005f52604160045260245ffd5b6200023d82620001f5565b810181811067ffffffffffffffff821117156200025f576200025e62000205565b5b80604052505050565b5f62000273620001dc565b905062000281828262000232565b919050565b5f67ffffffffffffffff821115620002a357620002a262000205565b5b620002ae82620001f5565b9050602081019050919050565b5f5b83811015620002da578082015181840152602081019050620002bd565b5f8484015250505050565b5f620002fb620002f58462000286565b62000268565b9050828152602081018484840111156200031a5762000319620001f1565b5b62000327848285620002bb565b509392505050565b5f82601f830112620003465762000345620001ed565b5b815162000358848260208601620002e5565b91505092915050565b5f819050919050565b620003758162000361565b811462000380575f80fd5b50565b5f8151905062000393816200036a565b92915050565b5f805f805f60a08688031215620003b557620003b4620001e5565b5b5f86015167ffffffffffffffff811115620003d557620003d4620001e9565b5b620003e3888289016200032f565b955050602086015167ffffffffffffffff811115620004075762000406620001e9565b5b62000415888289016200032f565b945050604086015167ffffffffffffffff811115620004395762000438620001e9565b5b62000447888289016200032f565b93505060606200045a8882890162000383565b925050608086015167ffffffffffffffff8111156200047e576200047d620001e9565b5b6200048c888289016200032f565b9150509295509295909350565b5f81519050919050565b7f4e487b71000000000000000000000000000000000000000000000000000000005f52602260045260245ffd5b5f6002820490506001821680620004e857607f821691505b602082108103620004fe57620004fd620004a3565b5b50919050565b5f819050815f5260205f209050919050565b5f6020601f8301049050919050565b5f82821b905092915050565b5f60088302620005627fffffffffffffffffffffffffffffffffffffffffffffffffffffffffffffffff8262000525565b6200056e868362000525565b95508019841693508086168417925050509392505050565b5f819050919050565b5f620005af620005a9620005a38462000361565b62000586565b62000361565b9050919050565b5f819050919050565b620005ca836200058f565b620005e2620005d982620005b6565b84845462000531565b825550505050565b5f90565b620005f8620005ea565b62000605818484620005bf565b505050565b5b818110156200062c57620006205f82620005ee565b6001810190506200060b565b5050565b601f8211156200067b57620006458162000504565b620006508462000516565b8101602085101562000660578190505b620006786200066f8562000516565b8301826200060a565b50505b505050565b5f82821c905092915050565b5f6200069d5f198460080262000680565b1980831691505092915050565b5f620006b783836200068c565b9150826002028217905092915050565b620006d28262000499565b67ffffffffffffffff811115620006ee57620006ed62000205565b5b620006fa8254620004d0565b6200070782828562000630565b5f60209050601f8311600181146200073d575f841562000728578287015190505b620007348582620006aa565b865550620007a3565b601f1984166200074d8662000504565b5f5b8281101562000776578489015182556001820191506020850194506020810190506200074f565b8683101562000796578489015162000792601f8916826200068c565b8355505b6001600288020188555050505b505050505050565b5f73ffffffffffffffffffffffffffffffffffffffff82169050919050565b5f620007d682620007ab565b9050919050565b620007e881620007ca565b82525050565b5f602082019050620008035f830184620007dd565b92915050565b612a5d80620008175f395ff3fe608060405234801561000f575f80fd5b506004361061014b575f3560e01c806370a08231116100c1578063bc9a121f1161007a578063bc9a121f146103ad578063c2ca0ac5146103b7578063c46ccf3d146103d3578063c87b56dd146103ef578063e985e9c51461041f578063f2fde38b1461044f5761014b565b806370a08231146102ff578063715018a61461032f5780638da5cb5b1461033957806395d89b4114610357578063a22cb46514610375578063b88d4fde146103915761014b565b806323b872dd1161011357806323b872dd146102075780632f745c591461022357806342842e0e146102535780634f6ccce71461026f5780635055fbc31461029f5780636352211e146102cf5761014b565b806301ffc9a71461014f57806306fdde031461017f578063081812fc1461019d578063095ea7b3146101cd57806318160ddd146101e9575b5f80fd5b6101696004803603810190610164919061201f565b61046b565b6040516101769190612064565b60405180910390f35b6101876104e4565b6040516101949190612107565b60405180910390f35b6101b760048036038101906101b2919061215a565b610573565b6040516101c491906121c4565b60405180910390f35b6101e760048036038101906101e29190612207565b61058e565b005b6101f16105a4565b6040516101fe9190612254565b60405180910390f35b610221600480360381019061021c919061226d565b6105b0565b005b61023d60048036038101906102389190612207565b6106af565b60405161024a9190612254565b60405180910390f35b61026d6004803603810190610268919061226d565b610753565b005b6102896004803603810190610284919061215a565b610772565b6040516102969190612254565b60405180910390f35b6102b960048036038101906102b4919061215a565b6107e4565b6040516102c69190612064565b60405180910390f35b6102e960048036038101906102e4919061215a565b610801565b6040516102f691906121c4565b60405180910390f35b610319600480360381019061031491906122bd565b610812565b6040516103269190612254565b60405180910390f35b6103376108c8565b005b6103416108db565b60405161034e91906121c4565b60405180910390f35b61035f610903565b60405161036c9190612107565b60405180910390f35b61038f600480360381019061038a9190612312565b610993565b005b6103ab60048036038101906103a6919061247c565b6109a9565b005b6103b56109c6565b005b6103d160048036038101906103cc919061215a565b610a5d565b005b6103ed60048036038101906103e891906124fc565b610a89565b005b6104096004803603810190610404919061215a565b610ab9565b6040516104169190612107565b60405180910390f35b6104396004803603810190610434919061253a565b610ba0565b6040516104469190612064565b60405180910390f35b610469600480360381019061046491906122bd565b610c2e565b005b5f7f780e9d63000000000000000000000000000000000000000000000000000000007bffffffffffffffffffffffffffffffffffffffffffffffffffffffff1916827bffffffffffffffffffffffffffffffffffffffffffffffffffffffff191614806104dd57506104dc82610cb2565b5b9050919050565b60605f80546104f2906125a5565b80601f016020809104026020016040519081016040528092919081815260200182805461051e906125a5565b80156105695780601f1061054057610100808354040283529160200191610569565b820191905f5260205f20905b81548152906001019060200180831161054c57829003601f168201915b5050505050905090565b5f61057d82610d93565b5061058782610e19565b9050919050565b6105a0828261059b610e52565b610e59565b5050565b5f600880549050905090565b5f73ffffffffffffffffffffffffffffffffffffffff168273ffffffffffffffffffffffffffffffffffffffff1603610620575f6040517f64a0ae9200000000000000000000000000000000000000000000000000000000815260040161061791906121c4565b60405180910390fd5b5f610633838361062e610e52565b610e6b565b90508373ffffffffffffffffffffffffffffffffffffffff168173ffffffffffffffffffffffffffffffffffffffff16146106a9578382826040517f64283d7b0000000000000000000000000000000000000000000000000000000081526004016106a0939291906125d5565b60405180910390fd5b50505050565b5f6106b983610812565b82106106fe5782826040517fa57d13dc0000000000000000000000000000000000000000000000000000000081526004016106f592919061260a565b60405180910390fd5b60065f8473ffffffffffffffffffffffffffffffffffffffff1673ffffffffffffffffffffffffffffffffffffffff1681526020019081526020015f205f8381526020019081526020015f2054905092915050565b61076d83838360405180602001604052805f8152506109a9565b505050565b5f61077b6105a4565b82106107c0575f826040517fa57d13dc0000000000000000000000000000000000000000000000000000000081526004016107b792919061260a565b60405180910390fd5b600882815481106107d4576107d3612631565b5b905f5260205f2001549050919050565b600e602052805f5260405f205f915054906101000a900460ff1681565b5f61080b82610d93565b9050919050565b5f8073ffffffffffffffffffffffffffffffffffffffff168273ffffffffffffffffffffffffffffffffffffffff1603610883575f6040517f89c62b6400000000000000000000000000000000000000000000000000000000815260040161087a91906121c4565b60405180910390fd5b60035f8373ffffffffffffffffffffffffffffffffffffffff1673ffffffffffffffffffffffffffffffffffffffff1681526020019081526020015f20549050919050565b6108d0610f85565b6108d95f61100c565b565b5f600a5f9054906101000a900473ffffffffffffffffffffffffffffffffffffffff16905090565b606060018054610912906125a5565b80601f016020809104026020016040519081016040528092919081815260200182805461093e906125a5565b80156109895780601f1061096057610100808354040283529160200191610989565b820191905f5260205f20905b81548152906001019060200180831161096c57829003601f168201915b5050505050905090565b6109a561099e610e52565b83836110cf565b5050565b6109b48484846105b0565b6109c084848484611238565b50505050565b600c546109d16105a4565b10610a11576040517f08c379a0000000000000000000000000000000000000000000000000000000008152600401610a08906126a8565b60405180910390fd5b5f6001610a1c6105a4565b610a2691906126f3565b9050610a3230826113ea565b5f600e5f8381526020019081526020015f205f6101000a81548160ff02191690831515021790555050565b6001600e5f8381526020019081526020015f205f6101000a81548160ff02191690831515021790555050565b5f5b82811015610aa857610a9b6109c6565b8080600101915050610a8b565b50610ab5308260016110cf565b5050565b6060600e5f8381526020019081526020015f205f9054906101000a900460ff16610b6d57600d8054610aea906125a5565b80601f0160208091040260200160405190810160405280929190818152602001828054610b16906125a5565b8015610b615780601f10610b3857610100808354040283529160200191610b61565b820191905f5260205f20905b815481529060010190602001808311610b4457829003601f168201915b50505050509050610b9b565b600b610b78836114dd565b604051602001610b89929190612886565b60405160208183030381529060405290505b919050565b5f60055f8473ffffffffffffffffffffffffffffffffffffffff1673ffffffffffffffffffffffffffffffffffffffff1681526020019081526020015f205f8373ffffffffffffffffffffffffffffffffffffffff1673ffffffffffffffffffffffffffffffffffffffff1681526020019081526020015f205f9054906101000a900460ff16905092915050565b610c36610f85565b5f73ffffffffffffffffffffffffffffffffffffffff168173ffffffffffffffffffffffffffffffffffffffff1603610ca6575f6040517f1e4fbdf7000000000000000000000000000000000000000000000000000000008152600401610c9d91906121c4565b60405180910390fd5b610caf8161100c565b50565b5f7f80ac58cd000000000000000000000000000000000000000000000000000000007bffffffffffffffffffffffffffffffffffffffffffffffffffffffff1916827bffffffffffffffffffffffffffffffffffffffffffffffffffffffff19161480610d7c57507f5b5e139f000000000000000000000000000000000000000000000000000000007bffffffffffffffffffffffffffffffffffffffffffffffffffffffff1916827bffffffffffffffffffffffffffffffffffffffffffffffffffffffff1916145b80610d8c5750610d8b826115a7565b5b9050919050565b5f80610d9e83611610565b90505f73ffffffffffffffffffffffffffffffffffffffff168173ffffffffffffffffffffffffffffffffffffffff1603610e1057826040517f7e273289000000000000000000000000000000000000000000000000000000008152600401610e079190612254565b60405180910390fd5b80915050919050565b5f60045f8381526020019081526020015f205f9054906101000a900473ffffffffffffffffffffffffffffffffffffffff169050919050565b5f33905090565b610e668383836001611649565b505050565b5f80610e78858585611808565b90505f73ffffffffffffffffffffffffffffffffffffffff168173ffffffffffffffffffffffffffffffffffffffff1603610ebb57610eb684611a13565b610efa565b8473ffffffffffffffffffffffffffffffffffffffff168173ffffffffffffffffffffffffffffffffffffffff1614610ef957610ef88185611a57565b5b5b5f73ffffffffffffffffffffffffffffffffffffffff168573ffffffffffffffffffffffffffffffffffffffff1603610f3b57610f3684611ba1565b610f7a565b8473ffffffffffffffffffffffffffffffffffffffff168173ffffffffffffffffffffffffffffffffffffffff1614610f7957610f788585611c61565b5b5b809150509392505050565b610f8d610e52565b73ffffffffffffffffffffffffffffffffffffffff16610fab6108db565b73ffffffffffffffffffffffffffffffffffffffff161461100a57610fce610e52565b6040517f118cdaa700000000000000000000000000000000000000000000000000000000815260040161100191906121c4565b60405180910390fd5b565b5f600a5f9054906101000a900473ffffffffffffffffffffffffffffffffffffffff16905081600a5f6101000a81548173ffffffffffffffffffffffffffffffffffffffff021916908373ffffffffffffffffffffffffffffffffffffffff1602179055508173ffffffffffffffffffffffffffffffffffffffff168173ffffffffffffffffffffffffffffffffffffffff167f8be0079c531659141344cd1fd0a4f28419497f9722a3daafe3b4186f6b6457e060405160405180910390a35050565b5f73ffffffffffffffffffffffffffffffffffffffff168273ffffffffffffffffffffffffffffffffffffffff160361113f57816040517f5b08ba1800000000000000000000000000000000000000000000000000000000815260040161113691906121c4565b60405180910390fd5b8060055f8573ffffffffffffffffffffffffffffffffffffffff1673ffffffffffffffffffffffffffffffffffffffff1681526020019081526020015f205f8473ffffffffffffffffffffffffffffffffffffffff1673ffffffffffffffffffffffffffffffffffffffff1681526020019081526020015f205f6101000a81548160ff0219169083151502179055508173ffffffffffffffffffffffffffffffffffffffff168373ffffffffffffffffffffffffffffffffffffffff167f17307eab39ab6107e8899845ad3d59bd9653f200f220920489ca2b5937696c318360405161122b9190612064565b60405180910390a3505050565b5f8373ffffffffffffffffffffffffffffffffffffffff163b11156113e4578273ffffffffffffffffffffffffffffffffffffffff1663150b7a0261127b610e52565b8685856040518563ffffffff1660e01b815260040161129d9493929190612911565b6020604051808303815f875af19250505080156112d857506040513d601f19601f820116820180604052508101906112d5919061296f565b60015b611359573d805f8114611306576040519150601f19603f3d011682016040523d82523d5f602084013e61130b565b606091505b505f81510361135157836040517f64a0ae9200000000000000000000000000000000000000000000000000000000815260040161134891906121c4565b60405180910390fd5b805181602001fd5b63150b7a0260e01b7bffffffffffffffffffffffffffffffffffffffffffffffffffffffff1916817bffffffffffffffffffffffffffffffffffffffffffffffffffffffff1916146113e257836040517f64a0ae920000000000000000000000000000000000000000000000000000000081526004016113d991906121c4565b60405180910390fd5b505b50505050565b5f73ffffffffffffffffffffffffffffffffffffffff168273ffffffffffffffffffffffffffffffffffffffff160361145a575f6040517f64a0ae9200000000000000000000000000000000000000000000000000000000815260040161145191906121c4565b60405180910390fd5b5f61146683835f610e6b565b90505f73ffffffffffffffffffffffffffffffffffffffff168173ffffffffffffffffffffffffffffffffffffffff16146114d8575f6040517f73c6ac6e0000000000000000000000000000000000000000000000000000000081526004016114cf91906121c4565b60405180910390fd5b505050565b60605f60016114eb84611ce5565b0190505f8167ffffffffffffffff81111561150957611508612358565b5b6040519080825280601f01601f19166020018201604052801561153b5781602001600182028036833780820191505090505b5090505f82602001820190505b60011561159c578080600190039150507f3031323334353637383961626364656600000000000000000000000000000000600a86061a8153600a85816115915761159061299a565b5b0494505f8503611548575b819350505050919050565b5f7f01ffc9a7000000000000000000000000000000000000000000000000000000007bffffffffffffffffffffffffffffffffffffffffffffffffffffffff1916827bffffffffffffffffffffffffffffffffffffffffffffffffffffffff1916149050919050565b5f60025f8381526020019081526020015f205f9054906101000a900473ffffffffffffffffffffffffffffffffffffffff169050919050565b808061168157505f73ffffffffffffffffffffffffffffffffffffffff168273ffffffffffffffffffffffffffffffffffffffff1614155b156117b3575f61169084610d93565b90505f73ffffffffffffffffffffffffffffffffffffffff168373ffffffffffffffffffffffffffffffffffffffff16141580156116fa57508273ffffffffffffffffffffffffffffffffffffffff168173ffffffffffffffffffffffffffffffffffffffff1614155b801561170d575061170b8184610ba0565b155b1561174f57826040517fa9fbf51f00000000000000000000000000000000000000000000000000000000815260040161174691906121c4565b60405180910390fd5b81156117b157838573ffffffffffffffffffffffffffffffffffffffff168273ffffffffffffffffffffffffffffffffffffffff167f8c5be1e5ebec7d5bd14f71427d1e84f3dd0314c0f7b2291e5b200ac8c7c3b92560405160405180910390a45b505b8360045f8581526020019081526020015f205f6101000a81548173ffffffffffffffffffffffffffffffffffffffff021916908373ffffffffffffffffffffffffffffffffffffffff16021790555050505050565b5f8061181384611610565b90505f73ffffffffffffffffffffffffffffffffffffffff168373ffffffffffffffffffffffffffffffffffffffff161461185457611853818486611e36565b5b5f73ffffffffffffffffffffffffffffffffffffffff168173ffffffffffffffffffffffffffffffffffffffff16146118df576118935f855f80611649565b600160035f8373ffffffffffffffffffffffffffffffffffffffff1673ffffffffffffffffffffffffffffffffffffffff1681526020019081526020015f205f82825403925050819055505b5f73ffffffffffffffffffffffffffffffffffffffff168573ffffffffffffffffffffffffffffffffffffffff161461195e57600160035f8773ffffffffffffffffffffffffffffffffffffffff1673ffffffffffffffffffffffffffffffffffffffff1681526020019081526020015f205f82825401925050819055505b8460025f8681526020019081526020015f205f6101000a81548173ffffffffffffffffffffffffffffffffffffffff021916908373ffffffffffffffffffffffffffffffffffffffff160217905550838573ffffffffffffffffffffffffffffffffffffffff168273ffffffffffffffffffffffffffffffffffffffff167fddf252ad1be2c89b69c2b068fc378daa952ba7f163c4a11628f55a4df523b3ef60405160405180910390a4809150509392505050565b60088054905060095f8381526020019081526020015f2081905550600881908060018154018082558091505060019003905f5260205f20015f909190919091505550565b5f611a6183610812565b90505f60075f8481526020019081526020015f20549050818114611b38575f60065f8673ffffffffffffffffffffffffffffffffffffffff1673ffffffffffffffffffffffffffffffffffffffff1681526020019081526020015f205f8481526020019081526020015f205490508060065f8773ffffffffffffffffffffffffffffffffffffffff1673ffffffffffffffffffffffffffffffffffffffff1681526020019081526020015f205f8481526020019081526020015f20819055508160075f8381526020019081526020015f2081905550505b60075f8481526020019081526020015f205f905560065f8573ffffffffffffffffffffffffffffffffffffffff1673ffffffffffffffffffffffffffffffffffffffff1681526020019081526020015f205f8381526020019081526020015f205f905550505050565b5f6001600880549050611bb491906129c7565b90505f60095f8481526020019081526020015f205490505f60088381548110611be057611bdf612631565b5b905f5260205f20015490508060088381548110611c0057611bff612631565b5b905f5260205f2001819055508160095f8381526020019081526020015f208190555060095f8581526020019081526020015f205f90556008805480611c4857611c476129fa565b5b600190038181905f5260205f20015f9055905550505050565b5f6001611c6d84610812565b611c7791906129c7565b90508160065f8573ffffffffffffffffffffffffffffffffffffffff1673ffffffffffffffffffffffffffffffffffffffff1681526020019081526020015f205f8381526020019081526020015f20819055508060075f8481526020019081526020015f2081905550505050565b5f805f90507a184f03e93ff9f4daa797ed6e38ed64bf6a1f0100000000000000008310611d41577a184f03e93ff9f4daa797ed6e38ed64bf6a1f0100000000000000008381611d3757611d3661299a565b5b0492506040810190505b6d04ee2d6d415b85acef81000000008310611d7e576d04ee2d6d415b85acef81000000008381611d7457611d7361299a565b5b0492506020810190505b662386f26fc100008310611dad57662386f26fc100008381611da357611da261299a565b5b0492506010810190505b6305f5e1008310611dd6576305f5e1008381611dcc57611dcb61299a565b5b0492506008810190505b6127108310611dfb576127108381611df157611df061299a565b5b0492506004810190505b60648310611e1e5760648381611e1457611e1361299a565b5b0492506002810190505b600a8310611e2d576001810190505b80915050919050565b611e41838383611ef9565b611ef4575f73ffffffffffffffffffffffffffffffffffffffff168373ffffffffffffffffffffffffffffffffffffffff1603611eb557806040517f7e273289000000000000000000000000000000000000000000000000000000008152600401611eac9190612254565b60405180910390fd5b81816040517f177e802f000000000000000000000000000000000000000000000000000000008152600401611eeb92919061260a565b60405180910390fd5b505050565b5f8073ffffffffffffffffffffffffffffffffffffffff168373ffffffffffffffffffffffffffffffffffffffff1614158015611fb057508273ffffffffffffffffffffffffffffffffffffffff168473ffffffffffffffffffffffffffffffffffffffff161480611f715750611f708484610ba0565b5b80611faf57508273ffffffffffffffffffffffffffffffffffffffff16611f9783610e19565b73ffffffffffffffffffffffffffffffffffffffff16145b5b90509392505050565b5f604051905090565b5f80fd5b5f80fd5b5f7fffffffff0000000000000000000000000000000000000000000000000000000082169050919050565b611ffe81611fca565b8114612008575f80fd5b50565b5f8135905061201981611ff5565b92915050565b5f6020828403121561203457612033611fc2565b5b5f6120418482850161200b565b91505092915050565b5f8115159050919050565b61205e8161204a565b82525050565b5f6020820190506120775f830184612055565b92915050565b5f81519050919050565b5f82825260208201905092915050565b5f5b838110156120b4578082015181840152602081019050612099565b5f8484015250505050565b5f601f19601f8301169050919050565b5f6120d98261207d565b6120e38185612087565b93506120f3818560208601612097565b6120fc816120bf565b840191505092915050565b5f6020820190508181035f83015261211f81846120cf565b905092915050565b5f819050919050565b61213981612127565b8114612143575f80fd5b50565b5f8135905061215481612130565b92915050565b5f6020828403121561216f5761216e611fc2565b5b5f61217c84828501612146565b91505092915050565b5f73ffffffffffffffffffffffffffffffffffffffff82169050919050565b5f6121ae82612185565b9050919050565b6121be816121a4565b82525050565b5f6020820190506121d75f8301846121b5565b92915050565b6121e6816121a4565b81146121f0575f80fd5b50565b5f81359050612201816121dd565b92915050565b5f806040838503121561221d5761221c611fc2565b5b5f61222a858286016121f3565b925050602061223b85828601612146565b9150509250929050565b61224e81612127565b82525050565b5f6020820190506122675f830184612245565b92915050565b5f805f6060848603121561228457612283611fc2565b5b5f612291868287016121f3565b93505060206122a2868287016121f3565b92505060406122b386828701612146565b9150509250925092565b5f602082840312156122d2576122d1611fc2565b5b5f6122df848285016121f3565b91505092915050565b6122f18161204a565b81146122fb575f80fd5b50565b5f8135905061230c816122e8565b92915050565b5f806040838503121561232857612327611fc2565b5b5f612335858286016121f3565b9250506020612346858286016122fe565b9150509250929050565b5f80fd5b5f80fd5b7f4e487b71000000000000000000000000000000000000000000000000000000005f52604160045260245ffd5b61238e826120bf565b810181811067ffffffffffffffff821117156123ad576123ac612358565b5b80604052505050565b5f6123bf611fb9565b90506123cb8282612385565b919050565b5f67ffffffffffffffff8211156123ea576123e9612358565b5b6123f3826120bf565b9050602081019050919050565b828183375f83830152505050565b5f61242061241b846123d0565b6123b6565b90508281526020810184848401111561243c5761243b612354565b5b612447848285612400565b509392505050565b5f82601f83011261246357612462612350565b5b813561247384826020860161240e565b91505092915050565b5f805f806080858703121561249457612493611fc2565b5b5f6124a1878288016121f3565b94505060206124b2878288016121f3565b93505060406124c387828801612146565b925050606085013567ffffffffffffffff8111156124e4576124e3611fc6565b5b6124f08782880161244f565b91505092959194509250565b5f806040838503121561251257612511611fc2565b5b5f61251f85828601612146565b9250506020612530858286016121f3565b9150509250929050565b5f80604083850312156125505761254f611fc2565b5b5f61255d858286016121f3565b925050602061256e858286016121f3565b9150509250929050565b7f4e487b71000000000000000000000000000000000000000000000000000000005f52602260045260245ffd5b5f60028204905060018216806125bc57607f821691505b6020821081036125cf576125ce612578565b5b50919050565b5f6060820190506125e85f8301866121b5565b6125f56020830185612245565b61260260408301846121b5565b949350505050565b5f60408201905061261d5f8301856121b5565b61262a6020830184612245565b9392505050565b7f4e487b71000000000000000000000000000000000000000000000000000000005f52603260045260245ffd5b7f4e6f206d6f7265206d696e742e000000000000000000000000000000000000005f82015250565b5f612692600d83612087565b915061269d8261265e565b602082019050919050565b5f6020820190508181035f8301526126bf81612686565b9050919050565b7f4e487b71000000000000000000000000000000000000000000000000000000005f52601160045260245ffd5b5f6126fd82612127565b915061270883612127565b92508282019050808211156127205761271f6126c6565b5b92915050565b5f81905092915050565b5f819050815f5260205f209050919050565b5f815461274e816125a5565b6127588186612726565b9450600182165f81146127725760018114612787576127b9565b60ff19831686528115158202860193506127b9565b61279085612730565b5f5b838110156127b157815481890152600182019150602081019050612792565b838801955050505b50505092915050565b7f2f000000000000000000000000000000000000000000000000000000000000005f82015250565b5f6127f6600183612726565b9150612801826127c2565b600182019050919050565b5f6128168261207d565b6128208185612726565b9350612830818560208601612097565b80840191505092915050565b7f2e6a736f6e0000000000000000000000000000000000000000000000000000005f82015250565b5f612870600583612726565b915061287b8261283c565b600582019050919050565b5f6128918285612742565b915061289c826127ea565b91506128a8828461280c565b91506128b382612864565b91508190509392505050565b5f81519050919050565b5f82825260208201905092915050565b5f6128e3826128bf565b6128ed81856128c9565b93506128fd818560208601612097565b612906816120bf565b840191505092915050565b5f6080820190506129245f8301876121b5565b61293160208301866121b5565b61293e6040830185612245565b818103606083015261295081846128d9565b905095945050505050565b5f8151905061296981611ff5565b92915050565b5f6020828403121561298457612983611fc2565b5b5f6129918482850161295b565b91505092915050565b7f4e487b71000000000000000000000000000000000000000000000000000000005f52601260045260245ffd5b5f6129d182612127565b91506129dc83612127565b92508282039050818111156129f4576129f36126c6565b5b92915050565b7f4e487b71000000000000000000000000000000000000000000000000000000005f52603160045260245ffdfea26469706673582212205d0bb09d38089695f32ecd3eb5bcc33884c5b8209f8ca599186af6b223e861d064736f6c63430008170033",
			"opcodes": "PUSH1 0x80 PUSH1 0x40 MSTORE CALLVALUE DUP1 ISZERO PUSH3 0x10 JUMPI PUSH0 DUP1 REVERT JUMPDEST POP PUSH1 0x40 MLOAD PUSH3 0x3274 CODESIZE SUB DUP1 PUSH3 0x3274 DUP4 CODECOPY DUP2 DUP2 ADD PUSH1 0x40 MSTORE DUP2 ADD SWAP1 PUSH3 0x36 SWAP2 SWAP1 PUSH3 0x399 JUMP JUMPDEST ADDRESS DUP6 DUP5 DUP2 PUSH0 SWAP1 DUP2 PUSH3 0x49 SWAP2 SWAP1 PUSH3 0x6C7 JUMP JUMPDEST POP DUP1 PUSH1 0x1 SWAP1 DUP2 PUSH3 0x5B SWAP2 SWAP1 PUSH3 0x6C7 JUMP JUMPDEST POP POP POP PUSH0 PUSH20 0xFFFFFFFFFFFFFFFFFFFFFFFFFFFFFFFFFFFFFFFF AND DUP2 PUSH20 0xFFFFFFFFFFFFFFFFFFFFFFFFFFFFFFFFFFFFFFFF AND SUB PUSH3 0xD1 JUMPI PUSH0 PUSH1 0x40 MLOAD PUSH32 0x1E4FBDF700000000000000000000000000000000000000000000000000000000 DUP2 MSTORE PUSH1 0x4 ADD PUSH3 0xC8 SWAP2 SWAP1 PUSH3 0x7EE JUMP JUMPDEST PUSH1 0x40 MLOAD DUP1 SWAP2 SUB SWAP1 REVERT JUMPDEST PUSH3 0xE2 DUP2 PUSH3 0x119 PUSH1 0x20 SHL PUSH1 0x20 SHR JUMP JUMPDEST POP DUP2 PUSH1 0xC DUP2 SWAP1 SSTORE POP DUP1 PUSH1 0xB SWAP1 DUP2 PUSH3 0xFB SWAP2 SWAP1 PUSH3 0x6C7 JUMP JUMPDEST POP DUP4 PUSH1 0xD SWAP1 DUP2 PUSH3 0x10D SWAP2 SWAP1 PUSH3 0x6C7 JUMP JUMPDEST POP POP POP POP POP POP PUSH3 0x809 JUMP JUMPDEST PUSH0 PUSH1 0xA PUSH0 SWAP1 SLOAD SWAP1 PUSH2 0x100 EXP SWAP1 DIV PUSH20 0xFFFFFFFFFFFFFFFFFFFFFFFFFFFFFFFFFFFFFFFF AND SWAP1 POP DUP2 PUSH1 0xA PUSH0 PUSH2 0x100 EXP DUP2 SLOAD DUP2 PUSH20 0xFFFFFFFFFFFFFFFFFFFFFFFFFFFFFFFFFFFFFFFF MUL NOT AND SWAP1 DUP4 PUSH20 0xFFFFFFFFFFFFFFFFFFFFFFFFFFFFFFFFFFFFFFFF AND MUL OR SWAP1 SSTORE POP DUP2 PUSH20 0xFFFFFFFFFFFFFFFFFFFFFFFFFFFFFFFFFFFFFFFF AND DUP2 PUSH20 0xFFFFFFFFFFFFFFFFFFFFFFFFFFFFFFFFFFFFFFFF AND PUSH32 0x8BE0079C531659141344CD1FD0A4F28419497F9722A3DAAFE3B4186F6B6457E0 PUSH1 0x40 MLOAD PUSH1 0x40 MLOAD DUP1 SWAP2 SUB SWAP1 LOG3 POP POP JUMP JUMPDEST PUSH0 PUSH1 0x40 MLOAD SWAP1 POP SWAP1 JUMP JUMPDEST PUSH0 DUP1 REVERT JUMPDEST PUSH0 DUP1 REVERT JUMPDEST PUSH0 DUP1 REVERT JUMPDEST PUSH0 DUP1 REVERT JUMPDEST PUSH0 PUSH1 0x1F NOT PUSH1 0x1F DUP4 ADD AND SWAP1 POP SWAP2 SWAP1 POP JUMP JUMPDEST PUSH32 0x4E487B7100000000000000000000000000000000000000000000000000000000 PUSH0 MSTORE PUSH1 0x41 PUSH1 0x4 MSTORE PUSH1 0x24 PUSH0 REVERT JUMPDEST PUSH3 0x23D DUP3 PUSH3 0x1F5 JUMP JUMPDEST DUP2 ADD DUP2 DUP2 LT PUSH8 0xFFFFFFFFFFFFFFFF DUP3 GT OR ISZERO PUSH3 0x25F JUMPI PUSH3 0x25E PUSH3 0x205 JUMP JUMPDEST JUMPDEST DUP1 PUSH1 0x40 MSTORE POP POP POP JUMP JUMPDEST PUSH0 PUSH3 0x273 PUSH3 0x1DC JUMP JUMPDEST SWAP1 POP PUSH3 0x281 DUP3 DUP3 PUSH3 0x232 JUMP JUMPDEST SWAP2 SWAP1 POP JUMP JUMPDEST PUSH0 PUSH8 0xFFFFFFFFFFFFFFFF DUP3 GT ISZERO PUSH3 0x2A3 JUMPI PUSH3 0x2A2 PUSH3 0x205 JUMP JUMPDEST JUMPDEST PUSH3 0x2AE DUP3 PUSH3 0x1F5 JUMP JUMPDEST SWAP1 POP PUSH1 0x20 DUP2 ADD SWAP1 POP SWAP2 SWAP1 POP JUMP JUMPDEST PUSH0 JUMPDEST DUP4 DUP2 LT ISZERO PUSH3 0x2DA JUMPI DUP1 DUP3 ADD MLOAD DUP2 DUP5 ADD MSTORE PUSH1 0x20 DUP2 ADD SWAP1 POP PUSH3 0x2BD JUMP JUMPDEST PUSH0 DUP5 DUP5 ADD MSTORE POP POP POP POP JUMP JUMPDEST PUSH0 PUSH3 0x2FB PUSH3 0x2F5 DUP5 PUSH3 0x286 JUMP JUMPDEST PUSH3 0x268 JUMP JUMPDEST SWAP1 POP DUP3 DUP2 MSTORE PUSH1 0x20 DUP2 ADD DUP5 DUP5 DUP5 ADD GT ISZERO PUSH3 0x31A JUMPI PUSH3 0x319 PUSH3 0x1F1 JUMP JUMPDEST JUMPDEST PUSH3 0x327 DUP5 DUP3 DUP6 PUSH3 0x2BB JUMP JUMPDEST POP SWAP4 SWAP3 POP POP POP JUMP JUMPDEST PUSH0 DUP3 PUSH1 0x1F DUP4 ADD SLT PUSH3 0x346 JUMPI PUSH3 0x345 PUSH3 0x1ED JUMP JUMPDEST JUMPDEST DUP2 MLOAD PUSH3 0x358 DUP5 DUP3 PUSH1 0x20 DUP7 ADD PUSH3 0x2E5 JUMP JUMPDEST SWAP2 POP POP SWAP3 SWAP2 POP POP JUMP JUMPDEST PUSH0 DUP2 SWAP1 POP SWAP2 SWAP1 POP JUMP JUMPDEST PUSH3 0x375 DUP2 PUSH3 0x361 JUMP JUMPDEST DUP2 EQ PUSH3 0x380 JUMPI PUSH0 DUP1 REVERT JUMPDEST POP JUMP JUMPDEST PUSH0 DUP2 MLOAD SWAP1 POP PUSH3 0x393 DUP2 PUSH3 0x36A JUMP JUMPDEST SWAP3 SWAP2 POP POP JUMP JUMPDEST PUSH0 DUP1 PUSH0 DUP1 PUSH0 PUSH1 0xA0 DUP7 DUP9 SUB SLT ISZERO PUSH3 0x3B5 JUMPI PUSH3 0x3B4 PUSH3 0x1E5 JUMP JUMPDEST JUMPDEST PUSH0 DUP7 ADD MLOAD PUSH8 0xFFFFFFFFFFFFFFFF DUP2 GT ISZERO PUSH3 0x3D5 JUMPI PUSH3 0x3D4 PUSH3 0x1E9 JUMP JUMPDEST JUMPDEST PUSH3 0x3E3 DUP9 DUP3 DUP10 ADD PUSH3 0x32F JUMP JUMPDEST SWAP6 POP POP PUSH1 0x20 DUP7 ADD MLOAD PUSH8 0xFFFFFFFFFFFFFFFF DUP2 GT ISZERO PUSH3 0x407 JUMPI PUSH3 0x406 PUSH3 0x1E9 JUMP JUMPDEST JUMPDEST PUSH3 0x415 DUP9 DUP3 DUP10 ADD PUSH3 0x32F JUMP JUMPDEST SWAP5 POP POP PUSH1 0x40 DUP7 ADD MLOAD PUSH8 0xFFFFFFFFFFFFFFFF DUP2 GT ISZERO PUSH3 0x439 JUMPI PUSH3 0x438 PUSH3 0x1E9 JUMP JUMPDEST JUMPDEST PUSH3 0x447 DUP9 DUP3 DUP10 ADD PUSH3 0x32F JUMP JUMPDEST SWAP4 POP POP PUSH1 0x60 PUSH3 0x45A DUP9 DUP3 DUP10 ADD PUSH3 0x383 JUMP JUMPDEST SWAP3 POP POP PUSH1 0x80 DUP7 ADD MLOAD PUSH8 0xFFFFFFFFFFFFFFFF DUP2 GT ISZERO PUSH3 0x47E JUMPI PUSH3 0x47D PUSH3 0x1E9 JUMP JUMPDEST JUMPDEST PUSH3 0x48C DUP9 DUP3 DUP10 ADD PUSH3 0x32F JUMP JUMPDEST SWAP2 POP POP SWAP3 SWAP6 POP SWAP3 SWAP6 SWAP1 SWAP4 POP JUMP JUMPDEST PUSH0 DUP2 MLOAD SWAP1 POP SWAP2 SWAP1 POP JUMP JUMPDEST PUSH32 0x4E487B7100000000000000000000000000000000000000000000000000000000 PUSH0 MSTORE PUSH1 0x22 PUSH1 0x4 MSTORE PUSH1 0x24 PUSH0 REVERT JUMPDEST PUSH0 PUSH1 0x2 DUP3 DIV SWAP1 POP PUSH1 0x1 DUP3 AND DUP1 PUSH3 0x4E8 JUMPI PUSH1 0x7F DUP3 AND SWAP2 POP JUMPDEST PUSH1 0x20 DUP3 LT DUP2 SUB PUSH3 0x4FE JUMPI PUSH3 0x4FD PUSH3 0x4A3 JUMP JUMPDEST JUMPDEST POP SWAP2 SWAP1 POP JUMP JUMPDEST PUSH0 DUP2 SWAP1 POP DUP2 PUSH0 MSTORE PUSH1 0x20 PUSH0 KECCAK256 SWAP1 POP SWAP2 SWAP1 POP JUMP JUMPDEST PUSH0 PUSH1 0x20 PUSH1 0x1F DUP4 ADD DIV SWAP1 POP SWAP2 SWAP1 POP JUMP JUMPDEST PUSH0 DUP3 DUP3 SHL SWAP1 POP SWAP3 SWAP2 POP POP JUMP JUMPDEST PUSH0 PUSH1 0x8 DUP4 MUL PUSH3 0x562 PUSH32 0xFFFFFFFFFFFFFFFFFFFFFFFFFFFFFFFFFFFFFFFFFFFFFFFFFFFFFFFFFFFFFFFF DUP3 PUSH3 0x525 JUMP JUMPDEST PUSH3 0x56E DUP7 DUP4 PUSH3 0x525 JUMP JUMPDEST SWAP6 POP DUP1 NOT DUP5 AND SWAP4 POP DUP1 DUP7 AND DUP5 OR SWAP3 POP POP POP SWAP4 SWAP3 POP POP POP JUMP JUMPDEST PUSH0 DUP2 SWAP1 POP SWAP2 SWAP1 POP JUMP JUMPDEST PUSH0 PUSH3 0x5AF PUSH3 0x5A9 PUSH3 0x5A3 DUP5 PUSH3 0x361 JUMP JUMPDEST PUSH3 0x586 JUMP JUMPDEST PUSH3 0x361 JUMP JUMPDEST SWAP1 POP SWAP2 SWAP1 POP JUMP JUMPDEST PUSH0 DUP2 SWAP1 POP SWAP2 SWAP1 POP JUMP JUMPDEST PUSH3 0x5CA DUP4 PUSH3 0x58F JUMP JUMPDEST PUSH3 0x5E2 PUSH3 0x5D9 DUP3 PUSH3 0x5B6 JUMP JUMPDEST DUP5 DUP5 SLOAD PUSH3 0x531 JUMP JUMPDEST DUP3 SSTORE POP POP POP POP JUMP JUMPDEST PUSH0 SWAP1 JUMP JUMPDEST PUSH3 0x5F8 PUSH3 0x5EA JUMP JUMPDEST PUSH3 0x605 DUP2 DUP5 DUP5 PUSH3 0x5BF JUMP JUMPDEST POP POP POP JUMP JUMPDEST JUMPDEST DUP2 DUP2 LT ISZERO PUSH3 0x62C JUMPI PUSH3 0x620 PUSH0 DUP3 PUSH3 0x5EE JUMP JUMPDEST PUSH1 0x1 DUP2 ADD SWAP1 POP PUSH3 0x60B JUMP JUMPDEST POP POP JUMP JUMPDEST PUSH1 0x1F DUP3 GT ISZERO PUSH3 0x67B JUMPI PUSH3 0x645 DUP2 PUSH3 0x504 JUMP JUMPDEST PUSH3 0x650 DUP5 PUSH3 0x516 JUMP JUMPDEST DUP2 ADD PUSH1 0x20 DUP6 LT ISZERO PUSH3 0x660 JUMPI DUP2 SWAP1 POP JUMPDEST PUSH3 0x678 PUSH3 0x66F DUP6 PUSH3 0x516 JUMP JUMPDEST DUP4 ADD DUP3 PUSH3 0x60A JUMP JUMPDEST POP POP JUMPDEST POP POP POP JUMP JUMPDEST PUSH0 DUP3 DUP3 SHR SWAP1 POP SWAP3 SWAP2 POP POP JUMP JUMPDEST PUSH0 PUSH3 0x69D PUSH0 NOT DUP5 PUSH1 0x8 MUL PUSH3 0x680 JUMP JUMPDEST NOT DUP1 DUP4 AND SWAP2 POP POP SWAP3 SWAP2 POP POP JUMP JUMPDEST PUSH0 PUSH3 0x6B7 DUP4 DUP4 PUSH3 0x68C JUMP JUMPDEST SWAP2 POP DUP3 PUSH1 0x2 MUL DUP3 OR SWAP1 POP SWAP3 SWAP2 POP POP JUMP JUMPDEST PUSH3 0x6D2 DUP3 PUSH3 0x499 JUMP JUMPDEST PUSH8 0xFFFFFFFFFFFFFFFF DUP2 GT ISZERO PUSH3 0x6EE JUMPI PUSH3 0x6ED PUSH3 0x205 JUMP JUMPDEST JUMPDEST PUSH3 0x6FA DUP3 SLOAD PUSH3 0x4D0 JUMP JUMPDEST PUSH3 0x707 DUP3 DUP3 DUP6 PUSH3 0x630 JUMP JUMPDEST PUSH0 PUSH1 0x20 SWAP1 POP PUSH1 0x1F DUP4 GT PUSH1 0x1 DUP2 EQ PUSH3 0x73D JUMPI PUSH0 DUP5 ISZERO PUSH3 0x728 JUMPI DUP3 DUP8 ADD MLOAD SWAP1 POP JUMPDEST PUSH3 0x734 DUP6 DUP3 PUSH3 0x6AA JUMP JUMPDEST DUP7 SSTORE POP PUSH3 0x7A3 JUMP JUMPDEST PUSH1 0x1F NOT DUP5 AND PUSH3 0x74D DUP7 PUSH3 0x504 JUMP JUMPDEST PUSH0 JUMPDEST DUP3 DUP2 LT ISZERO PUSH3 0x776 JUMPI DUP5 DUP10 ADD MLOAD DUP3 SSTORE PUSH1 0x1 DUP3 ADD SWAP2 POP PUSH1 0x20 DUP6 ADD SWAP5 POP PUSH1 0x20 DUP2 ADD SWAP1 POP PUSH3 0x74F JUMP JUMPDEST DUP7 DUP4 LT ISZERO PUSH3 0x796 JUMPI DUP5 DUP10 ADD MLOAD PUSH3 0x792 PUSH1 0x1F DUP10 AND DUP3 PUSH3 0x68C JUMP JUMPDEST DUP4 SSTORE POP JUMPDEST PUSH1 0x1 PUSH1 0x2 DUP9 MUL ADD DUP9 SSTORE POP POP POP JUMPDEST POP POP POP POP POP POP JUMP JUMPDEST PUSH0 PUSH20 0xFFFFFFFFFFFFFFFFFFFFFFFFFFFFFFFFFFFFFFFF DUP3 AND SWAP1 POP SWAP2 SWAP1 POP JUMP JUMPDEST PUSH0 PUSH3 0x7D6 DUP3 PUSH3 0x7AB JUMP JUMPDEST SWAP1 POP SWAP2 SWAP1 POP JUMP JUMPDEST PUSH3 0x7E8 DUP2 PUSH3 0x7CA JUMP JUMPDEST DUP3 MSTORE POP POP JUMP JUMPDEST PUSH0 PUSH1 0x20 DUP3 ADD SWAP1 POP PUSH3 0x803 PUSH0 DUP4 ADD DUP5 PUSH3 0x7DD JUMP JUMPDEST SWAP3 SWAP2 POP POP JUMP JUMPDEST PUSH2 0x2A5D DUP1 PUSH3 0x817 PUSH0 CODECOPY PUSH0 RETURN INVALID PUSH1 0x80 PUSH1 0x40 MSTORE CALLVALUE DUP1 ISZERO PUSH2 0xF JUMPI PUSH0 DUP1 REVERT JUMPDEST POP PUSH1 0x4 CALLDATASIZE LT PUSH2 0x14B JUMPI PUSH0 CALLDATALOAD PUSH1 0xE0 SHR DUP1 PUSH4 0x70A08231 GT PUSH2 0xC1 JUMPI DUP1 PUSH4 0xBC9A121F GT PUSH2 0x7A JUMPI DUP1 PUSH4 0xBC9A121F EQ PUSH2 0x3AD JUMPI DUP1 PUSH4 0xC2CA0AC5 EQ PUSH2 0x3B7 JUMPI DUP1 PUSH4 0xC46CCF3D EQ PUSH2 0x3D3 JUMPI DUP1 PUSH4 0xC87B56DD EQ PUSH2 0x3EF JUMPI DUP1 PUSH4 0xE985E9C5 EQ PUSH2 0x41F JUMPI DUP1 PUSH4 0xF2FDE38B EQ PUSH2 0x44F JUMPI PUSH2 0x14B JUMP JUMPDEST DUP1 PUSH4 0x70A08231 EQ PUSH2 0x2FF JUMPI DUP1 PUSH4 0x715018A6 EQ PUSH2 0x32F JUMPI DUP1 PUSH4 0x8DA5CB5B EQ PUSH2 0x339 JUMPI DUP1 PUSH4 0x95D89B41 EQ PUSH2 0x357 JUMPI DUP1 PUSH4 0xA22CB465 EQ PUSH2 0x375 JUMPI DUP1 PUSH4 0xB88D4FDE EQ PUSH2 0x391 JUMPI PUSH2 0x14B JUMP JUMPDEST DUP1 PUSH4 0x23B872DD GT PUSH2 0x113 JUMPI DUP1 PUSH4 0x23B872DD EQ PUSH2 0x207 JUMPI DUP1 PUSH4 0x2F745C59 EQ PUSH2 0x223 JUMPI DUP1 PUSH4 0x42842E0E EQ PUSH2 0x253 JUMPI DUP1 PUSH4 0x4F6CCCE7 EQ PUSH2 0x26F JUMPI DUP1 PUSH4 0x5055FBC3 EQ PUSH2 0x29F JUMPI DUP1 PUSH4 0x6352211E EQ PUSH2 0x2CF JUMPI PUSH2 0x14B JUMP JUMPDEST DUP1 PUSH4 0x1FFC9A7 EQ PUSH2 0x14F JUMPI DUP1 PUSH4 0x6FDDE03 EQ PUSH2 0x17F JUMPI DUP1 PUSH4 0x81812FC EQ PUSH2 0x19D JUMPI DUP1 PUSH4 0x95EA7B3 EQ PUSH2 0x1CD JUMPI DUP1 PUSH4 0x18160DDD EQ PUSH2 0x1E9 JUMPI JUMPDEST PUSH0 DUP1 REVERT JUMPDEST PUSH2 0x169 PUSH1 0x4 DUP1 CALLDATASIZE SUB DUP2 ADD SWAP1 PUSH2 0x164 SWAP2 SWAP1 PUSH2 0x201F JUMP JUMPDEST PUSH2 0x46B JUMP JUMPDEST PUSH1 0x40 MLOAD PUSH2 0x176 SWAP2 SWAP1 PUSH2 0x2064 JUMP JUMPDEST PUSH1 0x40 MLOAD DUP1 SWAP2 SUB SWAP1 RETURN JUMPDEST PUSH2 0x187 PUSH2 0x4E4 JUMP JUMPDEST PUSH1 0x40 MLOAD PUSH2 0x194 SWAP2 SWAP1 PUSH2 0x2107 JUMP JUMPDEST PUSH1 0x40 MLOAD DUP1 SWAP2 SUB SWAP1 RETURN JUMPDEST PUSH2 0x1B7 PUSH1 0x4 DUP1 CALLDATASIZE SUB DUP2 ADD SWAP1 PUSH2 0x1B2 SWAP2 SWAP1 PUSH2 0x215A JUMP JUMPDEST PUSH2 0x573 JUMP JUMPDEST PUSH1 0x40 MLOAD PUSH2 0x1C4 SWAP2 SWAP1 PUSH2 0x21C4 JUMP JUMPDEST PUSH1 0x40 MLOAD DUP1 SWAP2 SUB SWAP1 RETURN JUMPDEST PUSH2 0x1E7 PUSH1 0x4 DUP1 CALLDATASIZE SUB DUP2 ADD SWAP1 PUSH2 0x1E2 SWAP2 SWAP1 PUSH2 0x2207 JUMP JUMPDEST PUSH2 0x58E JUMP JUMPDEST STOP JUMPDEST PUSH2 0x1F1 PUSH2 0x5A4 JUMP JUMPDEST PUSH1 0x40 MLOAD PUSH2 0x1FE SWAP2 SWAP1 PUSH2 0x2254 JUMP JUMPDEST PUSH1 0x40 MLOAD DUP1 SWAP2 SUB SWAP1 RETURN JUMPDEST PUSH2 0x221 PUSH1 0x4 DUP1 CALLDATASIZE SUB DUP2 ADD SWAP1 PUSH2 0x21C SWAP2 SWAP1 PUSH2 0x226D JUMP JUMPDEST PUSH2 0x5B0 JUMP JUMPDEST STOP JUMPDEST PUSH2 0x23D PUSH1 0x4 DUP1 CALLDATASIZE SUB DUP2 ADD SWAP1 PUSH2 0x238 SWAP2 SWAP1 PUSH2 0x2207 JUMP JUMPDEST PUSH2 0x6AF JUMP JUMPDEST PUSH1 0x40 MLOAD PUSH2 0x24A SWAP2 SWAP1 PUSH2 0x2254 JUMP JUMPDEST PUSH1 0x40 MLOAD DUP1 SWAP2 SUB SWAP1 RETURN JUMPDEST PUSH2 0x26D PUSH1 0x4 DUP1 CALLDATASIZE SUB DUP2 ADD SWAP1 PUSH2 0x268 SWAP2 SWAP1 PUSH2 0x226D JUMP JUMPDEST PUSH2 0x753 JUMP JUMPDEST STOP JUMPDEST PUSH2 0x289 PUSH1 0x4 DUP1 CALLDATASIZE SUB DUP2 ADD SWAP1 PUSH2 0x284 SWAP2 SWAP1 PUSH2 0x215A JUMP JUMPDEST PUSH2 0x772 JUMP JUMPDEST PUSH1 0x40 MLOAD PUSH2 0x296 SWAP2 SWAP1 PUSH2 0x2254 JUMP JUMPDEST PUSH1 0x40 MLOAD DUP1 SWAP2 SUB SWAP1 RETURN JUMPDEST PUSH2 0x2B9 PUSH1 0x4 DUP1 CALLDATASIZE SUB DUP2 ADD SWAP1 PUSH2 0x2B4 SWAP2 SWAP1 PUSH2 0x215A JUMP JUMPDEST PUSH2 0x7E4 JUMP JUMPDEST PUSH1 0x40 MLOAD PUSH2 0x2C6 SWAP2 SWAP1 PUSH2 0x2064 JUMP JUMPDEST PUSH1 0x40 MLOAD DUP1 SWAP2 SUB SWAP1 RETURN JUMPDEST PUSH2 0x2E9 PUSH1 0x4 DUP1 CALLDATASIZE SUB DUP2 ADD SWAP1 PUSH2 0x2E4 SWAP2 SWAP1 PUSH2 0x215A JUMP JUMPDEST PUSH2 0x801 JUMP JUMPDEST PUSH1 0x40 MLOAD PUSH2 0x2F6 SWAP2 SWAP1 PUSH2 0x21C4 JUMP JUMPDEST PUSH1 0x40 MLOAD DUP1 SWAP2 SUB SWAP1 RETURN JUMPDEST PUSH2 0x319 PUSH1 0x4 DUP1 CALLDATASIZE SUB DUP2 ADD SWAP1 PUSH2 0x314 SWAP2 SWAP1 PUSH2 0x22BD JUMP JUMPDEST PUSH2 0x812 JUMP JUMPDEST PUSH1 0x40 MLOAD PUSH2 0x326 SWAP2 SWAP1 PUSH2 0x2254 JUMP JUMPDEST PUSH1 0x40 MLOAD DUP1 SWAP2 SUB SWAP1 RETURN JUMPDEST PUSH2 0x337 PUSH2 0x8C8 JUMP JUMPDEST STOP JUMPDEST PUSH2 0x341 PUSH2 0x8DB JUMP JUMPDEST PUSH1 0x40 MLOAD PUSH2 0x34E SWAP2 SWAP1 PUSH2 0x21C4 JUMP JUMPDEST PUSH1 0x40 MLOAD DUP1 SWAP2 SUB SWAP1 RETURN JUMPDEST PUSH2 0x35F PUSH2 0x903 JUMP JUMPDEST PUSH1 0x40 MLOAD PUSH2 0x36C SWAP2 SWAP1 PUSH2 0x2107 JUMP JUMPDEST PUSH1 0x40 MLOAD DUP1 SWAP2 SUB SWAP1 RETURN JUMPDEST PUSH2 0x38F PUSH1 0x4 DUP1 CALLDATASIZE SUB DUP2 ADD SWAP1 PUSH2 0x38A SWAP2 SWAP1 PUSH2 0x2312 JUMP JUMPDEST PUSH2 0x993 JUMP JUMPDEST STOP JUMPDEST PUSH2 0x3AB PUSH1 0x4 DUP1 CALLDATASIZE SUB DUP2 ADD SWAP1 PUSH2 0x3A6 SWAP2 SWAP1 PUSH2 0x247C JUMP JUMPDEST PUSH2 0x9A9 JUMP JUMPDEST STOP JUMPDEST PUSH2 0x3B5 PUSH2 0x9C6 JUMP JUMPDEST STOP JUMPDEST PUSH2 0x3D1 PUSH1 0x4 DUP1 CALLDATASIZE SUB DUP2 ADD SWAP1 PUSH2 0x3CC SWAP2 SWAP1 PUSH2 0x215A JUMP JUMPDEST PUSH2 0xA5D JUMP JUMPDEST STOP JUMPDEST PUSH2 0x3ED PUSH1 0x4 DUP1 CALLDATASIZE SUB DUP2 ADD SWAP1 PUSH2 0x3E8 SWAP2 SWAP1 PUSH2 0x24FC JUMP JUMPDEST PUSH2 0xA89 JUMP JUMPDEST STOP JUMPDEST PUSH2 0x409 PUSH1 0x4 DUP1 CALLDATASIZE SUB DUP2 ADD SWAP1 PUSH2 0x404 SWAP2 SWAP1 PUSH2 0x215A JUMP JUMPDEST PUSH2 0xAB9 JUMP JUMPDEST PUSH1 0x40 MLOAD PUSH2 0x416 SWAP2 SWAP1 PUSH2 0x2107 JUMP JUMPDEST PUSH1 0x40 MLOAD DUP1 SWAP2 SUB SWAP1 RETURN JUMPDEST PUSH2 0x439 PUSH1 0x4 DUP1 CALLDATASIZE SUB DUP2 ADD SWAP1 PUSH2 0x434 SWAP2 SWAP1 PUSH2 0x253A JUMP JUMPDEST PUSH2 0xBA0 JUMP JUMPDEST PUSH1 0x40 MLOAD PUSH2 0x446 SWAP2 SWAP1 PUSH2 0x2064 JUMP JUMPDEST PUSH1 0x40 MLOAD DUP1 SWAP2 SUB SWAP1 RETURN JUMPDEST PUSH2 0x469 PUSH1 0x4 DUP1 CALLDATASIZE SUB DUP2 ADD SWAP1 PUSH2 0x464 SWAP2 SWAP1 PUSH2 0x22BD JUMP JUMPDEST PUSH2 0xC2E JUMP JUMPDEST STOP JUMPDEST PUSH0 PUSH32 0x780E9D6300000000000000000000000000000000000000000000000000000000 PUSH28 0xFFFFFFFFFFFFFFFFFFFFFFFFFFFFFFFFFFFFFFFFFFFFFFFFFFFFFFFF NOT AND DUP3 PUSH28 0xFFFFFFFFFFFFFFFFFFFFFFFFFFFFFFFFFFFFFFFFFFFFFFFFFFFFFFFF NOT AND EQ DUP1 PUSH2 0x4DD JUMPI POP PUSH2 0x4DC DUP3 PUSH2 0xCB2 JUMP JUMPDEST JUMPDEST SWAP1 POP SWAP2 SWAP1 POP JUMP JUMPDEST PUSH1 0x60 PUSH0 DUP1 SLOAD PUSH2 0x4F2 SWAP1 PUSH2 0x25A5 JUMP JUMPDEST DUP1 PUSH1 0x1F ADD PUSH1 0x20 DUP1 SWAP2 DIV MUL PUSH1 0x20 ADD PUSH1 0x40 MLOAD SWAP1 DUP2 ADD PUSH1 0x40 MSTORE DUP1 SWAP3 SWAP2 SWAP1 DUP2 DUP2 MSTORE PUSH1 0x20 ADD DUP3 DUP1 SLOAD PUSH2 0x51E SWAP1 PUSH2 0x25A5 JUMP JUMPDEST DUP1 ISZERO PUSH2 0x569 JUMPI DUP1 PUSH1 0x1F LT PUSH2 0x540 JUMPI PUSH2 0x100 DUP1 DUP4 SLOAD DIV MUL DUP4 MSTORE SWAP2 PUSH1 0x20 ADD SWAP2 PUSH2 0x569 JUMP JUMPDEST DUP3 ADD SWAP2 SWAP1 PUSH0 MSTORE PUSH1 0x20 PUSH0 KECCAK256 SWAP1 JUMPDEST DUP2 SLOAD DUP2 MSTORE SWAP1 PUSH1 0x1 ADD SWAP1 PUSH1 0x20 ADD DUP1 DUP4 GT PUSH2 0x54C JUMPI DUP3 SWAP1 SUB PUSH1 0x1F AND DUP3 ADD SWAP2 JUMPDEST POP POP POP POP POP SWAP1 POP SWAP1 JUMP JUMPDEST PUSH0 PUSH2 0x57D DUP3 PUSH2 0xD93 JUMP JUMPDEST POP PUSH2 0x587 DUP3 PUSH2 0xE19 JUMP JUMPDEST SWAP1 POP SWAP2 SWAP1 POP JUMP JUMPDEST PUSH2 0x5A0 DUP3 DUP3 PUSH2 0x59B PUSH2 0xE52 JUMP JUMPDEST PUSH2 0xE59 JUMP JUMPDEST POP POP JUMP JUMPDEST PUSH0 PUSH1 0x8 DUP1 SLOAD SWAP1 POP SWAP1 POP SWAP1 JUMP JUMPDEST PUSH0 PUSH20 0xFFFFFFFFFFFFFFFFFFFFFFFFFFFFFFFFFFFFFFFF AND DUP3 PUSH20 0xFFFFFFFFFFFFFFFFFFFFFFFFFFFFFFFFFFFFFFFF AND SUB PUSH2 0x620 JUMPI PUSH0 PUSH1 0x40 MLOAD PUSH32 0x64A0AE9200000000000000000000000000000000000000000000000000000000 DUP2 MSTORE PUSH1 0x4 ADD PUSH2 0x617 SWAP2 SWAP1 PUSH2 0x21C4 JUMP JUMPDEST PUSH1 0x40 MLOAD DUP1 SWAP2 SUB SWAP1 REVERT JUMPDEST PUSH0 PUSH2 0x633 DUP4 DUP4 PUSH2 0x62E PUSH2 0xE52 JUMP JUMPDEST PUSH2 0xE6B JUMP JUMPDEST SWAP1 POP DUP4 PUSH20 0xFFFFFFFFFFFFFFFFFFFFFFFFFFFFFFFFFFFFFFFF AND DUP2 PUSH20 0xFFFFFFFFFFFFFFFFFFFFFFFFFFFFFFFFFFFFFFFF AND EQ PUSH2 0x6A9 JUMPI DUP4 DUP3 DUP3 PUSH1 0x40 MLOAD PUSH32 0x64283D7B00000000000000000000000000000000000000000000000000000000 DUP2 MSTORE PUSH1 0x4 ADD PUSH2 0x6A0 SWAP4 SWAP3 SWAP2 SWAP1 PUSH2 0x25D5 JUMP JUMPDEST PUSH1 0x40 MLOAD DUP1 SWAP2 SUB SWAP1 REVERT JUMPDEST POP POP POP POP JUMP JUMPDEST PUSH0 PUSH2 0x6B9 DUP4 PUSH2 0x812 JUMP JUMPDEST DUP3 LT PUSH2 0x6FE JUMPI DUP3 DUP3 PUSH1 0x40 MLOAD PUSH32 0xA57D13DC00000000000000000000000000000000000000000000000000000000 DUP2 MSTORE PUSH1 0x4 ADD PUSH2 0x6F5 SWAP3 SWAP2 SWAP1 PUSH2 0x260A JUMP JUMPDEST PUSH1 0x40 MLOAD DUP1 SWAP2 SUB SWAP1 REVERT JUMPDEST PUSH1 0x6 PUSH0 DUP5 PUSH20 0xFFFFFFFFFFFFFFFFFFFFFFFFFFFFFFFFFFFFFFFF AND PUSH20 0xFFFFFFFFFFFFFFFFFFFFFFFFFFFFFFFFFFFFFFFF AND DUP2 MSTORE PUSH1 0x20 ADD SWAP1 DUP2 MSTORE PUSH1 0x20 ADD PUSH0 KECCAK256 PUSH0 DUP4 DUP2 MSTORE PUSH1 0x20 ADD SWAP1 DUP2 MSTORE PUSH1 0x20 ADD PUSH0 KECCAK256 SLOAD SWAP1 POP SWAP3 SWAP2 POP POP JUMP JUMPDEST PUSH2 0x76D DUP4 DUP4 DUP4 PUSH1 0x40 MLOAD DUP1 PUSH1 0x20 ADD PUSH1 0x40 MSTORE DUP1 PUSH0 DUP2 MSTORE POP PUSH2 0x9A9 JUMP JUMPDEST POP POP POP JUMP JUMPDEST PUSH0 PUSH2 0x77B PUSH2 0x5A4 JUMP JUMPDEST DUP3 LT PUSH2 0x7C0 JUMPI PUSH0 DUP3 PUSH1 0x40 MLOAD PUSH32 0xA57D13DC00000000000000000000000000000000000000000000000000000000 DUP2 MSTORE PUSH1 0x4 ADD PUSH2 0x7B7 SWAP3 SWAP2 SWAP1 PUSH2 0x260A JUMP JUMPDEST PUSH1 0x40 MLOAD DUP1 SWAP2 SUB SWAP1 REVERT JUMPDEST PUSH1 0x8 DUP3 DUP2 SLOAD DUP2 LT PUSH2 0x7D4 JUMPI PUSH2 0x7D3 PUSH2 0x2631 JUMP JUMPDEST JUMPDEST SWAP1 PUSH0 MSTORE PUSH1 0x20 PUSH0 KECCAK256 ADD SLOAD SWAP1 POP SWAP2 SWAP1 POP JUMP JUMPDEST PUSH1 0xE PUSH1 0x20 MSTORE DUP1 PUSH0 MSTORE PUSH1 0x40 PUSH0 KECCAK256 PUSH0 SWAP2 POP SLOAD SWAP1 PUSH2 0x100 EXP SWAP1 DIV PUSH1 0xFF AND DUP2 JUMP JUMPDEST PUSH0 PUSH2 0x80B DUP3 PUSH2 0xD93 JUMP JUMPDEST SWAP1 POP SWAP2 SWAP1 POP JUMP JUMPDEST PUSH0 DUP1 PUSH20 0xFFFFFFFFFFFFFFFFFFFFFFFFFFFFFFFFFFFFFFFF AND DUP3 PUSH20 0xFFFFFFFFFFFFFFFFFFFFFFFFFFFFFFFFFFFFFFFF AND SUB PUSH2 0x883 JUMPI PUSH0 PUSH1 0x40 MLOAD PUSH32 0x89C62B6400000000000000000000000000000000000000000000000000000000 DUP2 MSTORE PUSH1 0x4 ADD PUSH2 0x87A SWAP2 SWAP1 PUSH2 0x21C4 JUMP JUMPDEST PUSH1 0x40 MLOAD DUP1 SWAP2 SUB SWAP1 REVERT JUMPDEST PUSH1 0x3 PUSH0 DUP4 PUSH20 0xFFFFFFFFFFFFFFFFFFFFFFFFFFFFFFFFFFFFFFFF AND PUSH20 0xFFFFFFFFFFFFFFFFFFFFFFFFFFFFFFFFFFFFFFFF AND DUP2 MSTORE PUSH1 0x20 ADD SWAP1 DUP2 MSTORE PUSH1 0x20 ADD PUSH0 KECCAK256 SLOAD SWAP1 POP SWAP2 SWAP1 POP JUMP JUMPDEST PUSH2 0x8D0 PUSH2 0xF85 JUMP JUMPDEST PUSH2 0x8D9 PUSH0 PUSH2 0x100C JUMP JUMPDEST JUMP JUMPDEST PUSH0 PUSH1 0xA PUSH0 SWAP1 SLOAD SWAP1 PUSH2 0x100 EXP SWAP1 DIV PUSH20 0xFFFFFFFFFFFFFFFFFFFFFFFFFFFFFFFFFFFFFFFF AND SWAP1 POP SWAP1 JUMP JUMPDEST PUSH1 0x60 PUSH1 0x1 DUP1 SLOAD PUSH2 0x912 SWAP1 PUSH2 0x25A5 JUMP JUMPDEST DUP1 PUSH1 0x1F ADD PUSH1 0x20 DUP1 SWAP2 DIV MUL PUSH1 0x20 ADD PUSH1 0x40 MLOAD SWAP1 DUP2 ADD PUSH1 0x40 MSTORE DUP1 SWAP3 SWAP2 SWAP1 DUP2 DUP2 MSTORE PUSH1 0x20 ADD DUP3 DUP1 SLOAD PUSH2 0x93E SWAP1 PUSH2 0x25A5 JUMP JUMPDEST DUP1 ISZERO PUSH2 0x989 JUMPI DUP1 PUSH1 0x1F LT PUSH2 0x960 JUMPI PUSH2 0x100 DUP1 DUP4 SLOAD DIV MUL DUP4 MSTORE SWAP2 PUSH1 0x20 ADD SWAP2 PUSH2 0x989 JUMP JUMPDEST DUP3 ADD SWAP2 SWAP1 PUSH0 MSTORE PUSH1 0x20 PUSH0 KECCAK256 SWAP1 JUMPDEST DUP2 SLOAD DUP2 MSTORE SWAP1 PUSH1 0x1 ADD SWAP1 PUSH1 0x20 ADD DUP1 DUP4 GT PUSH2 0x96C JUMPI DUP3 SWAP1 SUB PUSH1 0x1F AND DUP3 ADD SWAP2 JUMPDEST POP POP POP POP POP SWAP1 POP SWAP1 JUMP JUMPDEST PUSH2 0x9A5 PUSH2 0x99E PUSH2 0xE52 JUMP JUMPDEST DUP4 DUP4 PUSH2 0x10CF JUMP JUMPDEST POP POP JUMP JUMPDEST PUSH2 0x9B4 DUP5 DUP5 DUP5 PUSH2 0x5B0 JUMP JUMPDEST PUSH2 0x9C0 DUP5 DUP5 DUP5 DUP5 PUSH2 0x1238 JUMP JUMPDEST POP POP POP POP JUMP JUMPDEST PUSH1 0xC SLOAD PUSH2 0x9D1 PUSH2 0x5A4 JUMP JUMPDEST LT PUSH2 0xA11 JUMPI PUSH1 0x40 MLOAD PUSH32 0x8C379A000000000000000000000000000000000000000000000000000000000 DUP2 MSTORE PUSH1 0x4 ADD PUSH2 0xA08 SWAP1 PUSH2 0x26A8 JUMP JUMPDEST PUSH1 0x40 MLOAD DUP1 SWAP2 SUB SWAP1 REVERT JUMPDEST PUSH0 PUSH1 0x1 PUSH2 0xA1C PUSH2 0x5A4 JUMP JUMPDEST PUSH2 0xA26 SWAP2 SWAP1 PUSH2 0x26F3 JUMP JUMPDEST SWAP1 POP PUSH2 0xA32 ADDRESS DUP3 PUSH2 0x13EA JUMP JUMPDEST PUSH0 PUSH1 0xE PUSH0 DUP4 DUP2 MSTORE PUSH1 0x20 ADD SWAP1 DUP2 MSTORE PUSH1 0x20 ADD PUSH0 KECCAK256 PUSH0 PUSH2 0x100 EXP DUP2 SLOAD DUP2 PUSH1 0xFF MUL NOT AND SWAP1 DUP4 ISZERO ISZERO MUL OR SWAP1 SSTORE POP POP JUMP JUMPDEST PUSH1 0x1 PUSH1 0xE PUSH0 DUP4 DUP2 MSTORE PUSH1 0x20 ADD SWAP1 DUP2 MSTORE PUSH1 0x20 ADD PUSH0 KECCAK256 PUSH0 PUSH2 0x100 EXP DUP2 SLOAD DUP2 PUSH1 0xFF MUL NOT AND SWAP1 DUP4 ISZERO ISZERO MUL OR SWAP1 SSTORE POP POP JUMP JUMPDEST PUSH0 JUMPDEST DUP3 DUP2 LT ISZERO PUSH2 0xAA8 JUMPI PUSH2 0xA9B PUSH2 0x9C6 JUMP JUMPDEST DUP1 DUP1 PUSH1 0x1 ADD SWAP2 POP POP PUSH2 0xA8B JUMP JUMPDEST POP PUSH2 0xAB5 ADDRESS DUP3 PUSH1 0x1 PUSH2 0x10CF JUMP JUMPDEST POP POP JUMP JUMPDEST PUSH1 0x60 PUSH1 0xE PUSH0 DUP4 DUP2 MSTORE PUSH1 0x20 ADD SWAP1 DUP2 MSTORE PUSH1 0x20 ADD PUSH0 KECCAK256 PUSH0 SWAP1 SLOAD SWAP1 PUSH2 0x100 EXP SWAP1 DIV PUSH1 0xFF AND PUSH2 0xB6D JUMPI PUSH1 0xD DUP1 SLOAD PUSH2 0xAEA SWAP1 PUSH2 0x25A5 JUMP JUMPDEST DUP1 PUSH1 0x1F ADD PUSH1 0x20 DUP1 SWAP2 DIV MUL PUSH1 0x20 ADD PUSH1 0x40 MLOAD SWAP1 DUP2 ADD PUSH1 0x40 MSTORE DUP1 SWAP3 SWAP2 SWAP1 DUP2 DUP2 MSTORE PUSH1 0x20 ADD DUP3 DUP1 SLOAD PUSH2 0xB16 SWAP1 PUSH2 0x25A5 JUMP JUMPDEST DUP1 ISZERO PUSH2 0xB61 JUMPI DUP1 PUSH1 0x1F LT PUSH2 0xB38 JUMPI PUSH2 0x100 DUP1 DUP4 SLOAD DIV MUL DUP4 MSTORE SWAP2 PUSH1 0x20 ADD SWAP2 PUSH2 0xB61 JUMP JUMPDEST DUP3 ADD SWAP2 SWAP1 PUSH0 MSTORE PUSH1 0x20 PUSH0 KECCAK256 SWAP1 JUMPDEST DUP2 SLOAD DUP2 MSTORE SWAP1 PUSH1 0x1 ADD SWAP1 PUSH1 0x20 ADD DUP1 DUP4 GT PUSH2 0xB44 JUMPI DUP3 SWAP1 SUB PUSH1 0x1F AND DUP3 ADD SWAP2 JUMPDEST POP POP POP POP POP SWAP1 POP PUSH2 0xB9B JUMP JUMPDEST PUSH1 0xB PUSH2 0xB78 DUP4 PUSH2 0x14DD JUMP JUMPDEST PUSH1 0x40 MLOAD PUSH1 0x20 ADD PUSH2 0xB89 SWAP3 SWAP2 SWAP1 PUSH2 0x2886 JUMP JUMPDEST PUSH1 0x40 MLOAD PUSH1 0x20 DUP2 DUP4 SUB SUB DUP2 MSTORE SWAP1 PUSH1 0x40 MSTORE SWAP1 POP JUMPDEST SWAP2 SWAP1 POP JUMP JUMPDEST PUSH0 PUSH1 0x5 PUSH0 DUP5 PUSH20 0xFFFFFFFFFFFFFFFFFFFFFFFFFFFFFFFFFFFFFFFF AND PUSH20 0xFFFFFFFFFFFFFFFFFFFFFFFFFFFFFFFFFFFFFFFF AND DUP2 MSTORE PUSH1 0x20 ADD SWAP1 DUP2 MSTORE PUSH1 0x20 ADD PUSH0 KECCAK256 PUSH0 DUP4 PUSH20 0xFFFFFFFFFFFFFFFFFFFFFFFFFFFFFFFFFFFFFFFF AND PUSH20 0xFFFFFFFFFFFFFFFFFFFFFFFFFFFFFFFFFFFFFFFF AND DUP2 MSTORE PUSH1 0x20 ADD SWAP1 DUP2 MSTORE PUSH1 0x20 ADD PUSH0 KECCAK256 PUSH0 SWAP1 SLOAD SWAP1 PUSH2 0x100 EXP SWAP1 DIV PUSH1 0xFF AND SWAP1 POP SWAP3 SWAP2 POP POP JUMP JUMPDEST PUSH2 0xC36 PUSH2 0xF85 JUMP JUMPDEST PUSH0 PUSH20 0xFFFFFFFFFFFFFFFFFFFFFFFFFFFFFFFFFFFFFFFF AND DUP2 PUSH20 0xFFFFFFFFFFFFFFFFFFFFFFFFFFFFFFFFFFFFFFFF AND SUB PUSH2 0xCA6 JUMPI PUSH0 PUSH1 0x40 MLOAD PUSH32 0x1E4FBDF700000000000000000000000000000000000000000000000000000000 DUP2 MSTORE PUSH1 0x4 ADD PUSH2 0xC9D SWAP2 SWAP1 PUSH2 0x21C4 JUMP JUMPDEST PUSH1 0x40 MLOAD DUP1 SWAP2 SUB SWAP1 REVERT JUMPDEST PUSH2 0xCAF DUP2 PUSH2 0x100C JUMP JUMPDEST POP JUMP JUMPDEST PUSH0 PUSH32 0x80AC58CD00000000000000000000000000000000000000000000000000000000 PUSH28 0xFFFFFFFFFFFFFFFFFFFFFFFFFFFFFFFFFFFFFFFFFFFFFFFFFFFFFFFF NOT AND DUP3 PUSH28 0xFFFFFFFFFFFFFFFFFFFFFFFFFFFFFFFFFFFFFFFFFFFFFFFFFFFFFFFF NOT AND EQ DUP1 PUSH2 0xD7C JUMPI POP PUSH32 0x5B5E139F00000000000000000000000000000000000000000000000000000000 PUSH28 0xFFFFFFFFFFFFFFFFFFFFFFFFFFFFFFFFFFFFFFFFFFFFFFFFFFFFFFFF NOT AND DUP3 PUSH28 0xFFFFFFFFFFFFFFFFFFFFFFFFFFFFFFFFFFFFFFFFFFFFFFFFFFFFFFFF NOT AND EQ JUMPDEST DUP1 PUSH2 0xD8C JUMPI POP PUSH2 0xD8B DUP3 PUSH2 0x15A7 JUMP JUMPDEST JUMPDEST SWAP1 POP SWAP2 SWAP1 POP JUMP JUMPDEST PUSH0 DUP1 PUSH2 0xD9E DUP4 PUSH2 0x1610 JUMP JUMPDEST SWAP1 POP PUSH0 PUSH20 0xFFFFFFFFFFFFFFFFFFFFFFFFFFFFFFFFFFFFFFFF AND DUP2 PUSH20 0xFFFFFFFFFFFFFFFFFFFFFFFFFFFFFFFFFFFFFFFF AND SUB PUSH2 0xE10 JUMPI DUP3 PUSH1 0x40 MLOAD PUSH32 0x7E27328900000000000000000000000000000000000000000000000000000000 DUP2 MSTORE PUSH1 0x4 ADD PUSH2 0xE07 SWAP2 SWAP1 PUSH2 0x2254 JUMP JUMPDEST PUSH1 0x40 MLOAD DUP1 SWAP2 SUB SWAP1 REVERT JUMPDEST DUP1 SWAP2 POP POP SWAP2 SWAP1 POP JUMP JUMPDEST PUSH0 PUSH1 0x4 PUSH0 DUP4 DUP2 MSTORE PUSH1 0x20 ADD SWAP1 DUP2 MSTORE PUSH1 0x20 ADD PUSH0 KECCAK256 PUSH0 SWAP1 SLOAD SWAP1 PUSH2 0x100 EXP SWAP1 DIV PUSH20 0xFFFFFFFFFFFFFFFFFFFFFFFFFFFFFFFFFFFFFFFF AND SWAP1 POP SWAP2 SWAP1 POP JUMP JUMPDEST PUSH0 CALLER SWAP1 POP SWAP1 JUMP JUMPDEST PUSH2 0xE66 DUP4 DUP4 DUP4 PUSH1 0x1 PUSH2 0x1649 JUMP JUMPDEST POP POP POP JUMP JUMPDEST PUSH0 DUP1 PUSH2 0xE78 DUP6 DUP6 DUP6 PUSH2 0x1808 JUMP JUMPDEST SWAP1 POP PUSH0 PUSH20 0xFFFFFFFFFFFFFFFFFFFFFFFFFFFFFFFFFFFFFFFF AND DUP2 PUSH20 0xFFFFFFFFFFFFFFFFFFFFFFFFFFFFFFFFFFFFFFFF AND SUB PUSH2 0xEBB JUMPI PUSH2 0xEB6 DUP5 PUSH2 0x1A13 JUMP JUMPDEST PUSH2 0xEFA JUMP JUMPDEST DUP5 PUSH20 0xFFFFFFFFFFFFFFFFFFFFFFFFFFFFFFFFFFFFFFFF AND DUP2 PUSH20 0xFFFFFFFFFFFFFFFFFFFFFFFFFFFFFFFFFFFFFFFF AND EQ PUSH2 0xEF9 JUMPI PUSH2 0xEF8 DUP2 DUP6 PUSH2 0x1A57 JUMP JUMPDEST JUMPDEST JUMPDEST PUSH0 PUSH20 0xFFFFFFFFFFFFFFFFFFFFFFFFFFFFFFFFFFFFFFFF AND DUP6 PUSH20 0xFFFFFFFFFFFFFFFFFFFFFFFFFFFFFFFFFFFFFFFF AND SUB PUSH2 0xF3B JUMPI PUSH2 0xF36 DUP5 PUSH2 0x1BA1 JUMP JUMPDEST PUSH2 0xF7A JUMP JUMPDEST DUP5 PUSH20 0xFFFFFFFFFFFFFFFFFFFFFFFFFFFFFFFFFFFFFFFF AND DUP2 PUSH20 0xFFFFFFFFFFFFFFFFFFFFFFFFFFFFFFFFFFFFFFFF AND EQ PUSH2 0xF79 JUMPI PUSH2 0xF78 DUP6 DUP6 PUSH2 0x1C61 JUMP JUMPDEST JUMPDEST JUMPDEST DUP1 SWAP2 POP POP SWAP4 SWAP3 POP POP POP JUMP JUMPDEST PUSH2 0xF8D PUSH2 0xE52 JUMP JUMPDEST PUSH20 0xFFFFFFFFFFFFFFFFFFFFFFFFFFFFFFFFFFFFFFFF AND PUSH2 0xFAB PUSH2 0x8DB JUMP JUMPDEST PUSH20 0xFFFFFFFFFFFFFFFFFFFFFFFFFFFFFFFFFFFFFFFF AND EQ PUSH2 0x100A JUMPI PUSH2 0xFCE PUSH2 0xE52 JUMP JUMPDEST PUSH1 0x40 MLOAD PUSH32 0x118CDAA700000000000000000000000000000000000000000000000000000000 DUP2 MSTORE PUSH1 0x4 ADD PUSH2 0x1001 SWAP2 SWAP1 PUSH2 0x21C4 JUMP JUMPDEST PUSH1 0x40 MLOAD DUP1 SWAP2 SUB SWAP1 REVERT JUMPDEST JUMP JUMPDEST PUSH0 PUSH1 0xA PUSH0 SWAP1 SLOAD SWAP1 PUSH2 0x100 EXP SWAP1 DIV PUSH20 0xFFFFFFFFFFFFFFFFFFFFFFFFFFFFFFFFFFFFFFFF AND SWAP1 POP DUP2 PUSH1 0xA PUSH0 PUSH2 0x100 EXP DUP2 SLOAD DUP2 PUSH20 0xFFFFFFFFFFFFFFFFFFFFFFFFFFFFFFFFFFFFFFFF MUL NOT AND SWAP1 DUP4 PUSH20 0xFFFFFFFFFFFFFFFFFFFFFFFFFFFFFFFFFFFFFFFF AND MUL OR SWAP1 SSTORE POP DUP2 PUSH20 0xFFFFFFFFFFFFFFFFFFFFFFFFFFFFFFFFFFFFFFFF AND DUP2 PUSH20 0xFFFFFFFFFFFFFFFFFFFFFFFFFFFFFFFFFFFFFFFF AND PUSH32 0x8BE0079C531659141344CD1FD0A4F28419497F9722A3DAAFE3B4186F6B6457E0 PUSH1 0x40 MLOAD PUSH1 0x40 MLOAD DUP1 SWAP2 SUB SWAP1 LOG3 POP POP JUMP JUMPDEST PUSH0 PUSH20 0xFFFFFFFFFFFFFFFFFFFFFFFFFFFFFFFFFFFFFFFF AND DUP3 PUSH20 0xFFFFFFFFFFFFFFFFFFFFFFFFFFFFFFFFFFFFFFFF AND SUB PUSH2 0x113F JUMPI DUP2 PUSH1 0x40 MLOAD PUSH32 0x5B08BA1800000000000000000000000000000000000000000000000000000000 DUP2 MSTORE PUSH1 0x4 ADD PUSH2 0x1136 SWAP2 SWAP1 PUSH2 0x21C4 JUMP JUMPDEST PUSH1 0x40 MLOAD DUP1 SWAP2 SUB SWAP1 REVERT JUMPDEST DUP1 PUSH1 0x5 PUSH0 DUP6 PUSH20 0xFFFFFFFFFFFFFFFFFFFFFFFFFFFFFFFFFFFFFFFF AND PUSH20 0xFFFFFFFFFFFFFFFFFFFFFFFFFFFFFFFFFFFFFFFF AND DUP2 MSTORE PUSH1 0x20 ADD SWAP1 DUP2 MSTORE PUSH1 0x20 ADD PUSH0 KECCAK256 PUSH0 DUP5 PUSH20 0xFFFFFFFFFFFFFFFFFFFFFFFFFFFFFFFFFFFFFFFF AND PUSH20 0xFFFFFFFFFFFFFFFFFFFFFFFFFFFFFFFFFFFFFFFF AND DUP2 MSTORE PUSH1 0x20 ADD SWAP1 DUP2 MSTORE PUSH1 0x20 ADD PUSH0 KECCAK256 PUSH0 PUSH2 0x100 EXP DUP2 SLOAD DUP2 PUSH1 0xFF MUL NOT AND SWAP1 DUP4 ISZERO ISZERO MUL OR SWAP1 SSTORE POP DUP2 PUSH20 0xFFFFFFFFFFFFFFFFFFFFFFFFFFFFFFFFFFFFFFFF AND DUP4 PUSH20 0xFFFFFFFFFFFFFFFFFFFFFFFFFFFFFFFFFFFFFFFF AND PUSH32 0x17307EAB39AB6107E8899845AD3D59BD9653F200F220920489CA2B5937696C31 DUP4 PUSH1 0x40 MLOAD PUSH2 0x122B SWAP2 SWAP1 PUSH2 0x2064 JUMP JUMPDEST PUSH1 0x40 MLOAD DUP1 SWAP2 SUB SWAP1 LOG3 POP POP POP JUMP JUMPDEST PUSH0 DUP4 PUSH20 0xFFFFFFFFFFFFFFFFFFFFFFFFFFFFFFFFFFFFFFFF AND EXTCODESIZE GT ISZERO PUSH2 0x13E4 JUMPI DUP3 PUSH20 0xFFFFFFFFFFFFFFFFFFFFFFFFFFFFFFFFFFFFFFFF AND PUSH4 0x150B7A02 PUSH2 0x127B PUSH2 0xE52 JUMP JUMPDEST DUP7 DUP6 DUP6 PUSH1 0x40 MLOAD DUP6 PUSH4 0xFFFFFFFF AND PUSH1 0xE0 SHL DUP2 MSTORE PUSH1 0x4 ADD PUSH2 0x129D SWAP5 SWAP4 SWAP3 SWAP2 SWAP1 PUSH2 0x2911 JUMP JUMPDEST PUSH1 0x20 PUSH1 0x40 MLOAD DUP1 DUP4 SUB DUP2 PUSH0 DUP8 GAS CALL SWAP3 POP POP POP DUP1 ISZERO PUSH2 0x12D8 JUMPI POP PUSH1 0x40 MLOAD RETURNDATASIZE PUSH1 0x1F NOT PUSH1 0x1F DUP3 ADD AND DUP3 ADD DUP1 PUSH1 0x40 MSTORE POP DUP2 ADD SWAP1 PUSH2 0x12D5 SWAP2 SWAP1 PUSH2 0x296F JUMP JUMPDEST PUSH1 0x1 JUMPDEST PUSH2 0x1359 JUMPI RETURNDATASIZE DUP1 PUSH0 DUP2 EQ PUSH2 0x1306 JUMPI PUSH1 0x40 MLOAD SWAP2 POP PUSH1 0x1F NOT PUSH1 0x3F RETURNDATASIZE ADD AND DUP3 ADD PUSH1 0x40 MSTORE RETURNDATASIZE DUP3 MSTORE RETURNDATASIZE PUSH0 PUSH1 0x20 DUP5 ADD RETURNDATACOPY PUSH2 0x130B JUMP JUMPDEST PUSH1 0x60 SWAP2 POP JUMPDEST POP PUSH0 DUP2 MLOAD SUB PUSH2 0x1351 JUMPI DUP4 PUSH1 0x40 MLOAD PUSH32 0x64A0AE9200000000000000000000000000000000000000000000000000000000 DUP2 MSTORE PUSH1 0x4 ADD PUSH2 0x1348 SWAP2 SWAP1 PUSH2 0x21C4 JUMP JUMPDEST PUSH1 0x40 MLOAD DUP1 SWAP2 SUB SWAP1 REVERT JUMPDEST DUP1 MLOAD DUP2 PUSH1 0x20 ADD REVERT JUMPDEST PUSH4 0x150B7A02 PUSH1 0xE0 SHL PUSH28 0xFFFFFFFFFFFFFFFFFFFFFFFFFFFFFFFFFFFFFFFFFFFFFFFFFFFFFFFF NOT AND DUP2 PUSH28 0xFFFFFFFFFFFFFFFFFFFFFFFFFFFFFFFFFFFFFFFFFFFFFFFFFFFFFFFF NOT AND EQ PUSH2 0x13E2 JUMPI DUP4 PUSH1 0x40 MLOAD PUSH32 0x64A0AE9200000000000000000000000000000000000000000000000000000000 DUP2 MSTORE PUSH1 0x4 ADD PUSH2 0x13D9 SWAP2 SWAP1 PUSH2 0x21C4 JUMP JUMPDEST PUSH1 0x40 MLOAD DUP1 SWAP2 SUB SWAP1 REVERT JUMPDEST POP JUMPDEST POP POP POP POP JUMP JUMPDEST PUSH0 PUSH20 0xFFFFFFFFFFFFFFFFFFFFFFFFFFFFFFFFFFFFFFFF AND DUP3 PUSH20 0xFFFFFFFFFFFFFFFFFFFFFFFFFFFFFFFFFFFFFFFF AND SUB PUSH2 0x145A JUMPI PUSH0 PUSH1 0x40 MLOAD PUSH32 0x64A0AE9200000000000000000000000000000000000000000000000000000000 DUP2 MSTORE PUSH1 0x4 ADD PUSH2 0x1451 SWAP2 SWAP1 PUSH2 0x21C4 JUMP JUMPDEST PUSH1 0x40 MLOAD DUP1 SWAP2 SUB SWAP1 REVERT JUMPDEST PUSH0 PUSH2 0x1466 DUP4 DUP4 PUSH0 PUSH2 0xE6B JUMP JUMPDEST SWAP1 POP PUSH0 PUSH20 0xFFFFFFFFFFFFFFFFFFFFFFFFFFFFFFFFFFFFFFFF AND DUP2 PUSH20 0xFFFFFFFFFFFFFFFFFFFFFFFFFFFFFFFFFFFFFFFF AND EQ PUSH2 0x14D8 JUMPI PUSH0 PUSH1 0x40 MLOAD PUSH32 0x73C6AC6E00000000000000000000000000000000000000000000000000000000 DUP2 MSTORE PUSH1 0x4 ADD PUSH2 0x14CF SWAP2 SWAP1 PUSH2 0x21C4 JUMP JUMPDEST PUSH1 0x40 MLOAD DUP1 SWAP2 SUB SWAP1 REVERT JUMPDEST POP POP POP JUMP JUMPDEST PUSH1 0x60 PUSH0 PUSH1 0x1 PUSH2 0x14EB DUP5 PUSH2 0x1CE5 JUMP JUMPDEST ADD SWAP1 POP PUSH0 DUP2 PUSH8 0xFFFFFFFFFFFFFFFF DUP2 GT ISZERO PUSH2 0x1509 JUMPI PUSH2 0x1508 PUSH2 0x2358 JUMP JUMPDEST JUMPDEST PUSH1 0x40 MLOAD SWAP1 DUP1 DUP3 MSTORE DUP1 PUSH1 0x1F ADD PUSH1 0x1F NOT AND PUSH1 0x20 ADD DUP3 ADD PUSH1 0x40 MSTORE DUP1 ISZERO PUSH2 0x153B JUMPI DUP2 PUSH1 0x20 ADD PUSH1 0x1 DUP3 MUL DUP1 CALLDATASIZE DUP4 CALLDATACOPY DUP1 DUP3 ADD SWAP2 POP POP SWAP1 POP JUMPDEST POP SWAP1 POP PUSH0 DUP3 PUSH1 0x20 ADD DUP3 ADD SWAP1 POP JUMPDEST PUSH1 0x1 ISZERO PUSH2 0x159C JUMPI DUP1 DUP1 PUSH1 0x1 SWAP1 SUB SWAP2 POP POP PUSH32 0x3031323334353637383961626364656600000000000000000000000000000000 PUSH1 0xA DUP7 MOD BYTE DUP2 MSTORE8 PUSH1 0xA DUP6 DUP2 PUSH2 0x1591 JUMPI PUSH2 0x1590 PUSH2 0x299A JUMP JUMPDEST JUMPDEST DIV SWAP5 POP PUSH0 DUP6 SUB PUSH2 0x1548 JUMPI JUMPDEST DUP2 SWAP4 POP POP POP POP SWAP2 SWAP1 POP JUMP JUMPDEST PUSH0 PUSH32 0x1FFC9A700000000000000000000000000000000000000000000000000000000 PUSH28 0xFFFFFFFFFFFFFFFFFFFFFFFFFFFFFFFFFFFFFFFFFFFFFFFFFFFFFFFF NOT AND DUP3 PUSH28 0xFFFFFFFFFFFFFFFFFFFFFFFFFFFFFFFFFFFFFFFFFFFFFFFFFFFFFFFF NOT AND EQ SWAP1 POP SWAP2 SWAP1 POP JUMP JUMPDEST PUSH0 PUSH1 0x2 PUSH0 DUP4 DUP2 MSTORE PUSH1 0x20 ADD SWAP1 DUP2 MSTORE PUSH1 0x20 ADD PUSH0 KECCAK256 PUSH0 SWAP1 SLOAD SWAP1 PUSH2 0x100 EXP SWAP1 DIV PUSH20 0xFFFFFFFFFFFFFFFFFFFFFFFFFFFFFFFFFFFFFFFF AND SWAP1 POP SWAP2 SWAP1 POP JUMP JUMPDEST DUP1 DUP1 PUSH2 0x1681 JUMPI POP PUSH0 PUSH20 0xFFFFFFFFFFFFFFFFFFFFFFFFFFFFFFFFFFFFFFFF AND DUP3 PUSH20 0xFFFFFFFFFFFFFFFFFFFFFFFFFFFFFFFFFFFFFFFF AND EQ ISZERO JUMPDEST ISZERO PUSH2 0x17B3 JUMPI PUSH0 PUSH2 0x1690 DUP5 PUSH2 0xD93 JUMP JUMPDEST SWAP1 POP PUSH0 PUSH20 0xFFFFFFFFFFFFFFFFFFFFFFFFFFFFFFFFFFFFFFFF AND DUP4 PUSH20 0xFFFFFFFFFFFFFFFFFFFFFFFFFFFFFFFFFFFFFFFF AND EQ ISZERO DUP1 ISZERO PUSH2 0x16FA JUMPI POP DUP3 PUSH20 0xFFFFFFFFFFFFFFFFFFFFFFFFFFFFFFFFFFFFFFFF AND DUP2 PUSH20 0xFFFFFFFFFFFFFFFFFFFFFFFFFFFFFFFFFFFFFFFF AND EQ ISZERO JUMPDEST DUP1 ISZERO PUSH2 0x170D JUMPI POP PUSH2 0x170B DUP2 DUP5 PUSH2 0xBA0 JUMP JUMPDEST ISZERO JUMPDEST ISZERO PUSH2 0x174F JUMPI DUP3 PUSH1 0x40 MLOAD PUSH32 0xA9FBF51F00000000000000000000000000000000000000000000000000000000 DUP2 MSTORE PUSH1 0x4 ADD PUSH2 0x1746 SWAP2 SWAP1 PUSH2 0x21C4 JUMP JUMPDEST PUSH1 0x40 MLOAD DUP1 SWAP2 SUB SWAP1 REVERT JUMPDEST DUP2 ISZERO PUSH2 0x17B1 JUMPI DUP4 DUP6 PUSH20 0xFFFFFFFFFFFFFFFFFFFFFFFFFFFFFFFFFFFFFFFF AND DUP3 PUSH20 0xFFFFFFFFFFFFFFFFFFFFFFFFFFFFFFFFFFFFFFFF AND PUSH32 0x8C5BE1E5EBEC7D5BD14F71427D1E84F3DD0314C0F7B2291E5B200AC8C7C3B925 PUSH1 0x40 MLOAD PUSH1 0x40 MLOAD DUP1 SWAP2 SUB SWAP1 LOG4 JUMPDEST POP JUMPDEST DUP4 PUSH1 0x4 PUSH0 DUP6 DUP2 MSTORE PUSH1 0x20 ADD SWAP1 DUP2 MSTORE PUSH1 0x20 ADD PUSH0 KECCAK256 PUSH0 PUSH2 0x100 EXP DUP2 SLOAD DUP2 PUSH20 0xFFFFFFFFFFFFFFFFFFFFFFFFFFFFFFFFFFFFFFFF MUL NOT AND SWAP1 DUP4 PUSH20 0xFFFFFFFFFFFFFFFFFFFFFFFFFFFFFFFFFFFFFFFF AND MUL OR SWAP1 SSTORE POP POP POP POP POP JUMP JUMPDEST PUSH0 DUP1 PUSH2 0x1813 DUP5 PUSH2 0x1610 JUMP JUMPDEST SWAP1 POP PUSH0 PUSH20 0xFFFFFFFFFFFFFFFFFFFFFFFFFFFFFFFFFFFFFFFF AND DUP4 PUSH20 0xFFFFFFFFFFFFFFFFFFFFFFFFFFFFFFFFFFFFFFFF AND EQ PUSH2 0x1854 JUMPI PUSH2 0x1853 DUP2 DUP5 DUP7 PUSH2 0x1E36 JUMP JUMPDEST JUMPDEST PUSH0 PUSH20 0xFFFFFFFFFFFFFFFFFFFFFFFFFFFFFFFFFFFFFFFF AND DUP2 PUSH20 0xFFFFFFFFFFFFFFFFFFFFFFFFFFFFFFFFFFFFFFFF AND EQ PUSH2 0x18DF JUMPI PUSH2 0x1893 PUSH0 DUP6 PUSH0 DUP1 PUSH2 0x1649 JUMP JUMPDEST PUSH1 0x1 PUSH1 0x3 PUSH0 DUP4 PUSH20 0xFFFFFFFFFFFFFFFFFFFFFFFFFFFFFFFFFFFFFFFF AND PUSH20 0xFFFFFFFFFFFFFFFFFFFFFFFFFFFFFFFFFFFFFFFF AND DUP2 MSTORE PUSH1 0x20 ADD SWAP1 DUP2 MSTORE PUSH1 0x20 ADD PUSH0 KECCAK256 PUSH0 DUP3 DUP3 SLOAD SUB SWAP3 POP POP DUP2 SWAP1 SSTORE POP JUMPDEST PUSH0 PUSH20 0xFFFFFFFFFFFFFFFFFFFFFFFFFFFFFFFFFFFFFFFF AND DUP6 PUSH20 0xFFFFFFFFFFFFFFFFFFFFFFFFFFFFFFFFFFFFFFFF AND EQ PUSH2 0x195E JUMPI PUSH1 0x1 PUSH1 0x3 PUSH0 DUP8 PUSH20 0xFFFFFFFFFFFFFFFFFFFFFFFFFFFFFFFFFFFFFFFF AND PUSH20 0xFFFFFFFFFFFFFFFFFFFFFFFFFFFFFFFFFFFFFFFF AND DUP2 MSTORE PUSH1 0x20 ADD SWAP1 DUP2 MSTORE PUSH1 0x20 ADD PUSH0 KECCAK256 PUSH0 DUP3 DUP3 SLOAD ADD SWAP3 POP POP DUP2 SWAP1 SSTORE POP JUMPDEST DUP5 PUSH1 0x2 PUSH0 DUP7 DUP2 MSTORE PUSH1 0x20 ADD SWAP1 DUP2 MSTORE PUSH1 0x20 ADD PUSH0 KECCAK256 PUSH0 PUSH2 0x100 EXP DUP2 SLOAD DUP2 PUSH20 0xFFFFFFFFFFFFFFFFFFFFFFFFFFFFFFFFFFFFFFFF MUL NOT AND SWAP1 DUP4 PUSH20 0xFFFFFFFFFFFFFFFFFFFFFFFFFFFFFFFFFFFFFFFF AND MUL OR SWAP1 SSTORE POP DUP4 DUP6 PUSH20 0xFFFFFFFFFFFFFFFFFFFFFFFFFFFFFFFFFFFFFFFF AND DUP3 PUSH20 0xFFFFFFFFFFFFFFFFFFFFFFFFFFFFFFFFFFFFFFFF AND PUSH32 0xDDF252AD1BE2C89B69C2B068FC378DAA952BA7F163C4A11628F55A4DF523B3EF PUSH1 0x40 MLOAD PUSH1 0x40 MLOAD DUP1 SWAP2 SUB SWAP1 LOG4 DUP1 SWAP2 POP POP SWAP4 SWAP3 POP POP POP JUMP JUMPDEST PUSH1 0x8 DUP1 SLOAD SWAP1 POP PUSH1 0x9 PUSH0 DUP4 DUP2 MSTORE PUSH1 0x20 ADD SWAP1 DUP2 MSTORE PUSH1 0x20 ADD PUSH0 KECCAK256 DUP2 SWAP1 SSTORE POP PUSH1 0x8 DUP2 SWAP1 DUP1 PUSH1 0x1 DUP2 SLOAD ADD DUP1 DUP3 SSTORE DUP1 SWAP2 POP POP PUSH1 0x1 SWAP1 SUB SWAP1 PUSH0 MSTORE PUSH1 0x20 PUSH0 KECCAK256 ADD PUSH0 SWAP1 SWAP2 SWAP1 SWAP2 SWAP1 SWAP2 POP SSTORE POP JUMP JUMPDEST PUSH0 PUSH2 0x1A61 DUP4 PUSH2 0x812 JUMP JUMPDEST SWAP1 POP PUSH0 PUSH1 0x7 PUSH0 DUP5 DUP2 MSTORE PUSH1 0x20 ADD SWAP1 DUP2 MSTORE PUSH1 0x20 ADD PUSH0 KECCAK256 SLOAD SWAP1 POP DUP2 DUP2 EQ PUSH2 0x1B38 JUMPI PUSH0 PUSH1 0x6 PUSH0 DUP7 PUSH20 0xFFFFFFFFFFFFFFFFFFFFFFFFFFFFFFFFFFFFFFFF AND PUSH20 0xFFFFFFFFFFFFFFFFFFFFFFFFFFFFFFFFFFFFFFFF AND DUP2 MSTORE PUSH1 0x20 ADD SWAP1 DUP2 MSTORE PUSH1 0x20 ADD PUSH0 KECCAK256 PUSH0 DUP5 DUP2 MSTORE PUSH1 0x20 ADD SWAP1 DUP2 MSTORE PUSH1 0x20 ADD PUSH0 KECCAK256 SLOAD SWAP1 POP DUP1 PUSH1 0x6 PUSH0 DUP8 PUSH20 0xFFFFFFFFFFFFFFFFFFFFFFFFFFFFFFFFFFFFFFFF AND PUSH20 0xFFFFFFFFFFFFFFFFFFFFFFFFFFFFFFFFFFFFFFFF AND DUP2 MSTORE PUSH1 0x20 ADD SWAP1 DUP2 MSTORE PUSH1 0x20 ADD PUSH0 KECCAK256 PUSH0 DUP5 DUP2 MSTORE PUSH1 0x20 ADD SWAP1 DUP2 MSTORE PUSH1 0x20 ADD PUSH0 KECCAK256 DUP2 SWAP1 SSTORE POP DUP2 PUSH1 0x7 PUSH0 DUP4 DUP2 MSTORE PUSH1 0x20 ADD SWAP1 DUP2 MSTORE PUSH1 0x20 ADD PUSH0 KECCAK256 DUP2 SWAP1 SSTORE POP POP JUMPDEST PUSH1 0x7 PUSH0 DUP5 DUP2 MSTORE PUSH1 0x20 ADD SWAP1 DUP2 MSTORE PUSH1 0x20 ADD PUSH0 KECCAK256 PUSH0 SWAP1 SSTORE PUSH1 0x6 PUSH0 DUP6 PUSH20 0xFFFFFFFFFFFFFFFFFFFFFFFFFFFFFFFFFFFFFFFF AND PUSH20 0xFFFFFFFFFFFFFFFFFFFFFFFFFFFFFFFFFFFFFFFF AND DUP2 MSTORE PUSH1 0x20 ADD SWAP1 DUP2 MSTORE PUSH1 0x20 ADD PUSH0 KECCAK256 PUSH0 DUP4 DUP2 MSTORE PUSH1 0x20 ADD SWAP1 DUP2 MSTORE PUSH1 0x20 ADD PUSH0 KECCAK256 PUSH0 SWAP1 SSTORE POP POP POP POP JUMP JUMPDEST PUSH0 PUSH1 0x1 PUSH1 0x8 DUP1 SLOAD SWAP1 POP PUSH2 0x1BB4 SWAP2 SWAP1 PUSH2 0x29C7 JUMP JUMPDEST SWAP1 POP PUSH0 PUSH1 0x9 PUSH0 DUP5 DUP2 MSTORE PUSH1 0x20 ADD SWAP1 DUP2 MSTORE PUSH1 0x20 ADD PUSH0 KECCAK256 SLOAD SWAP1 POP PUSH0 PUSH1 0x8 DUP4 DUP2 SLOAD DUP2 LT PUSH2 0x1BE0 JUMPI PUSH2 0x1BDF PUSH2 0x2631 JUMP JUMPDEST JUMPDEST SWAP1 PUSH0 MSTORE PUSH1 0x20 PUSH0 KECCAK256 ADD SLOAD SWAP1 POP DUP1 PUSH1 0x8 DUP4 DUP2 SLOAD DUP2 LT PUSH2 0x1C00 JUMPI PUSH2 0x1BFF PUSH2 0x2631 JUMP JUMPDEST JUMPDEST SWAP1 PUSH0 MSTORE PUSH1 0x20 PUSH0 KECCAK256 ADD DUP2 SWAP1 SSTORE POP DUP2 PUSH1 0x9 PUSH0 DUP4 DUP2 MSTORE PUSH1 0x20 ADD SWAP1 DUP2 MSTORE PUSH1 0x20 ADD PUSH0 KECCAK256 DUP2 SWAP1 SSTORE POP PUSH1 0x9 PUSH0 DUP6 DUP2 MSTORE PUSH1 0x20 ADD SWAP1 DUP2 MSTORE PUSH1 0x20 ADD PUSH0 KECCAK256 PUSH0 SWAP1 SSTORE PUSH1 0x8 DUP1 SLOAD DUP1 PUSH2 0x1C48 JUMPI PUSH2 0x1C47 PUSH2 0x29FA JUMP JUMPDEST JUMPDEST PUSH1 0x1 SWAP1 SUB DUP2 DUP2 SWAP1 PUSH0 MSTORE PUSH1 0x20 PUSH0 KECCAK256 ADD PUSH0 SWAP1 SSTORE SWAP1 SSTORE POP POP POP POP JUMP JUMPDEST PUSH0 PUSH1 0x1 PUSH2 0x1C6D DUP5 PUSH2 0x812 JUMP JUMPDEST PUSH2 0x1C77 SWAP2 SWAP1 PUSH2 0x29C7 JUMP JUMPDEST SWAP1 POP DUP2 PUSH1 0x6 PUSH0 DUP6 PUSH20 0xFFFFFFFFFFFFFFFFFFFFFFFFFFFFFFFFFFFFFFFF AND PUSH20 0xFFFFFFFFFFFFFFFFFFFFFFFFFFFFFFFFFFFFFFFF AND DUP2 MSTORE PUSH1 0x20 ADD SWAP1 DUP2 MSTORE PUSH1 0x20 ADD PUSH0 KECCAK256 PUSH0 DUP4 DUP2 MSTORE PUSH1 0x20 ADD SWAP1 DUP2 MSTORE PUSH1 0x20 ADD PUSH0 KECCAK256 DUP2 SWAP1 SSTORE POP DUP1 PUSH1 0x7 PUSH0 DUP5 DUP2 MSTORE PUSH1 0x20 ADD SWAP1 DUP2 MSTORE PUSH1 0x20 ADD PUSH0 KECCAK256 DUP2 SWAP1 SSTORE POP POP POP POP JUMP JUMPDEST PUSH0 DUP1 PUSH0 SWAP1 POP PUSH27 0x184F03E93FF9F4DAA797ED6E38ED64BF6A1F010000000000000000 DUP4 LT PUSH2 0x1D41 JUMPI PUSH27 0x184F03E93FF9F4DAA797ED6E38ED64BF6A1F010000000000000000 DUP4 DUP2 PUSH2 0x1D37 JUMPI PUSH2 0x1D36 PUSH2 0x299A JUMP JUMPDEST JUMPDEST DIV SWAP3 POP PUSH1 0x40 DUP2 ADD SWAP1 POP JUMPDEST PUSH14 0x4EE2D6D415B85ACEF8100000000 DUP4 LT PUSH2 0x1D7E JUMPI PUSH14 0x4EE2D6D415B85ACEF8100000000 DUP4 DUP2 PUSH2 0x1D74 JUMPI PUSH2 0x1D73 PUSH2 0x299A JUMP JUMPDEST JUMPDEST DIV SWAP3 POP PUSH1 0x20 DUP2 ADD SWAP1 POP JUMPDEST PUSH7 0x2386F26FC10000 DUP4 LT PUSH2 0x1DAD JUMPI PUSH7 0x2386F26FC10000 DUP4 DUP2 PUSH2 0x1DA3 JUMPI PUSH2 0x1DA2 PUSH2 0x299A JUMP JUMPDEST JUMPDEST DIV SWAP3 POP PUSH1 0x10 DUP2 ADD SWAP1 POP JUMPDEST PUSH4 0x5F5E100 DUP4 LT PUSH2 0x1DD6 JUMPI PUSH4 0x5F5E100 DUP4 DUP2 PUSH2 0x1DCC JUMPI PUSH2 0x1DCB PUSH2 0x299A JUMP JUMPDEST JUMPDEST DIV SWAP3 POP PUSH1 0x8 DUP2 ADD SWAP1 POP JUMPDEST PUSH2 0x2710 DUP4 LT PUSH2 0x1DFB JUMPI PUSH2 0x2710 DUP4 DUP2 PUSH2 0x1DF1 JUMPI PUSH2 0x1DF0 PUSH2 0x299A JUMP JUMPDEST JUMPDEST DIV SWAP3 POP PUSH1 0x4 DUP2 ADD SWAP1 POP JUMPDEST PUSH1 0x64 DUP4 LT PUSH2 0x1E1E JUMPI PUSH1 0x64 DUP4 DUP2 PUSH2 0x1E14 JUMPI PUSH2 0x1E13 PUSH2 0x299A JUMP JUMPDEST JUMPDEST DIV SWAP3 POP PUSH1 0x2 DUP2 ADD SWAP1 POP JUMPDEST PUSH1 0xA DUP4 LT PUSH2 0x1E2D JUMPI PUSH1 0x1 DUP2 ADD SWAP1 POP JUMPDEST DUP1 SWAP2 POP POP SWAP2 SWAP1 POP JUMP JUMPDEST PUSH2 0x1E41 DUP4 DUP4 DUP4 PUSH2 0x1EF9 JUMP JUMPDEST PUSH2 0x1EF4 JUMPI PUSH0 PUSH20 0xFFFFFFFFFFFFFFFFFFFFFFFFFFFFFFFFFFFFFFFF AND DUP4 PUSH20 0xFFFFFFFFFFFFFFFFFFFFFFFFFFFFFFFFFFFFFFFF AND SUB PUSH2 0x1EB5 JUMPI DUP1 PUSH1 0x40 MLOAD PUSH32 0x7E27328900000000000000000000000000000000000000000000000000000000 DUP2 MSTORE PUSH1 0x4 ADD PUSH2 0x1EAC SWAP2 SWAP1 PUSH2 0x2254 JUMP JUMPDEST PUSH1 0x40 MLOAD DUP1 SWAP2 SUB SWAP1 REVERT JUMPDEST DUP2 DUP2 PUSH1 0x40 MLOAD PUSH32 0x177E802F00000000000000000000000000000000000000000000000000000000 DUP2 MSTORE PUSH1 0x4 ADD PUSH2 0x1EEB SWAP3 SWAP2 SWAP1 PUSH2 0x260A JUMP JUMPDEST PUSH1 0x40 MLOAD DUP1 SWAP2 SUB SWAP1 REVERT JUMPDEST POP POP POP JUMP JUMPDEST PUSH0 DUP1 PUSH20 0xFFFFFFFFFFFFFFFFFFFFFFFFFFFFFFFFFFFFFFFF AND DUP4 PUSH20 0xFFFFFFFFFFFFFFFFFFFFFFFFFFFFFFFFFFFFFFFF AND EQ ISZERO DUP1 ISZERO PUSH2 0x1FB0 JUMPI POP DUP3 PUSH20 0xFFFFFFFFFFFFFFFFFFFFFFFFFFFFFFFFFFFFFFFF AND DUP5 PUSH20 0xFFFFFFFFFFFFFFFFFFFFFFFFFFFFFFFFFFFFFFFF AND EQ DUP1 PUSH2 0x1F71 JUMPI POP PUSH2 0x1F70 DUP5 DUP5 PUSH2 0xBA0 JUMP JUMPDEST JUMPDEST DUP1 PUSH2 0x1FAF JUMPI POP DUP3 PUSH20 0xFFFFFFFFFFFFFFFFFFFFFFFFFFFFFFFFFFFFFFFF AND PUSH2 0x1F97 DUP4 PUSH2 0xE19 JUMP JUMPDEST PUSH20 0xFFFFFFFFFFFFFFFFFFFFFFFFFFFFFFFFFFFFFFFF AND EQ JUMPDEST JUMPDEST SWAP1 POP SWAP4 SWAP3 POP POP POP JUMP JUMPDEST PUSH0 PUSH1 0x40 MLOAD SWAP1 POP SWAP1 JUMP JUMPDEST PUSH0 DUP1 REVERT JUMPDEST PUSH0 DUP1 REVERT JUMPDEST PUSH0 PUSH32 0xFFFFFFFF00000000000000000000000000000000000000000000000000000000 DUP3 AND SWAP1 POP SWAP2 SWAP1 POP JUMP JUMPDEST PUSH2 0x1FFE DUP2 PUSH2 0x1FCA JUMP JUMPDEST DUP2 EQ PUSH2 0x2008 JUMPI PUSH0 DUP1 REVERT JUMPDEST POP JUMP JUMPDEST PUSH0 DUP2 CALLDATALOAD SWAP1 POP PUSH2 0x2019 DUP2 PUSH2 0x1FF5 JUMP JUMPDEST SWAP3 SWAP2 POP POP JUMP JUMPDEST PUSH0 PUSH1 0x20 DUP3 DUP5 SUB SLT ISZERO PUSH2 0x2034 JUMPI PUSH2 0x2033 PUSH2 0x1FC2 JUMP JUMPDEST JUMPDEST PUSH0 PUSH2 0x2041 DUP5 DUP3 DUP6 ADD PUSH2 0x200B JUMP JUMPDEST SWAP2 POP POP SWAP3 SWAP2 POP POP JUMP JUMPDEST PUSH0 DUP2 ISZERO ISZERO SWAP1 POP SWAP2 SWAP1 POP JUMP JUMPDEST PUSH2 0x205E DUP2 PUSH2 0x204A JUMP JUMPDEST DUP3 MSTORE POP POP JUMP JUMPDEST PUSH0 PUSH1 0x20 DUP3 ADD SWAP1 POP PUSH2 0x2077 PUSH0 DUP4 ADD DUP5 PUSH2 0x2055 JUMP JUMPDEST SWAP3 SWAP2 POP POP JUMP JUMPDEST PUSH0 DUP2 MLOAD SWAP1 POP SWAP2 SWAP1 POP JUMP JUMPDEST PUSH0 DUP3 DUP3 MSTORE PUSH1 0x20 DUP3 ADD SWAP1 POP SWAP3 SWAP2 POP POP JUMP JUMPDEST PUSH0 JUMPDEST DUP4 DUP2 LT ISZERO PUSH2 0x20B4 JUMPI DUP1 DUP3 ADD MLOAD DUP2 DUP5 ADD MSTORE PUSH1 0x20 DUP2 ADD SWAP1 POP PUSH2 0x2099 JUMP JUMPDEST PUSH0 DUP5 DUP5 ADD MSTORE POP POP POP POP JUMP JUMPDEST PUSH0 PUSH1 0x1F NOT PUSH1 0x1F DUP4 ADD AND SWAP1 POP SWAP2 SWAP1 POP JUMP JUMPDEST PUSH0 PUSH2 0x20D9 DUP3 PUSH2 0x207D JUMP JUMPDEST PUSH2 0x20E3 DUP2 DUP6 PUSH2 0x2087 JUMP JUMPDEST SWAP4 POP PUSH2 0x20F3 DUP2 DUP6 PUSH1 0x20 DUP7 ADD PUSH2 0x2097 JUMP JUMPDEST PUSH2 0x20FC DUP2 PUSH2 0x20BF JUMP JUMPDEST DUP5 ADD SWAP2 POP POP SWAP3 SWAP2 POP POP JUMP JUMPDEST PUSH0 PUSH1 0x20 DUP3 ADD SWAP1 POP DUP2 DUP2 SUB PUSH0 DUP4 ADD MSTORE PUSH2 0x211F DUP2 DUP5 PUSH2 0x20CF JUMP JUMPDEST SWAP1 POP SWAP3 SWAP2 POP POP JUMP JUMPDEST PUSH0 DUP2 SWAP1 POP SWAP2 SWAP1 POP JUMP JUMPDEST PUSH2 0x2139 DUP2 PUSH2 0x2127 JUMP JUMPDEST DUP2 EQ PUSH2 0x2143 JUMPI PUSH0 DUP1 REVERT JUMPDEST POP JUMP JUMPDEST PUSH0 DUP2 CALLDATALOAD SWAP1 POP PUSH2 0x2154 DUP2 PUSH2 0x2130 JUMP JUMPDEST SWAP3 SWAP2 POP POP JUMP JUMPDEST PUSH0 PUSH1 0x20 DUP3 DUP5 SUB SLT ISZERO PUSH2 0x216F JUMPI PUSH2 0x216E PUSH2 0x1FC2 JUMP JUMPDEST JUMPDEST PUSH0 PUSH2 0x217C DUP5 DUP3 DUP6 ADD PUSH2 0x2146 JUMP JUMPDEST SWAP2 POP POP SWAP3 SWAP2 POP POP JUMP JUMPDEST PUSH0 PUSH20 0xFFFFFFFFFFFFFFFFFFFFFFFFFFFFFFFFFFFFFFFF DUP3 AND SWAP1 POP SWAP2 SWAP1 POP JUMP JUMPDEST PUSH0 PUSH2 0x21AE DUP3 PUSH2 0x2185 JUMP JUMPDEST SWAP1 POP SWAP2 SWAP1 POP JUMP JUMPDEST PUSH2 0x21BE DUP2 PUSH2 0x21A4 JUMP JUMPDEST DUP3 MSTORE POP POP JUMP JUMPDEST PUSH0 PUSH1 0x20 DUP3 ADD SWAP1 POP PUSH2 0x21D7 PUSH0 DUP4 ADD DUP5 PUSH2 0x21B5 JUMP JUMPDEST SWAP3 SWAP2 POP POP JUMP JUMPDEST PUSH2 0x21E6 DUP2 PUSH2 0x21A4 JUMP JUMPDEST DUP2 EQ PUSH2 0x21F0 JUMPI PUSH0 DUP1 REVERT JUMPDEST POP JUMP JUMPDEST PUSH0 DUP2 CALLDATALOAD SWAP1 POP PUSH2 0x2201 DUP2 PUSH2 0x21DD JUMP JUMPDEST SWAP3 SWAP2 POP POP JUMP JUMPDEST PUSH0 DUP1 PUSH1 0x40 DUP4 DUP6 SUB SLT ISZERO PUSH2 0x221D JUMPI PUSH2 0x221C PUSH2 0x1FC2 JUMP JUMPDEST JUMPDEST PUSH0 PUSH2 0x222A DUP6 DUP3 DUP7 ADD PUSH2 0x21F3 JUMP JUMPDEST SWAP3 POP POP PUSH1 0x20 PUSH2 0x223B DUP6 DUP3 DUP7 ADD PUSH2 0x2146 JUMP JUMPDEST SWAP2 POP POP SWAP3 POP SWAP3 SWAP1 POP JUMP JUMPDEST PUSH2 0x224E DUP2 PUSH2 0x2127 JUMP JUMPDEST DUP3 MSTORE POP POP JUMP JUMPDEST PUSH0 PUSH1 0x20 DUP3 ADD SWAP1 POP PUSH2 0x2267 PUSH0 DUP4 ADD DUP5 PUSH2 0x2245 JUMP JUMPDEST SWAP3 SWAP2 POP POP JUMP JUMPDEST PUSH0 DUP1 PUSH0 PUSH1 0x60 DUP5 DUP7 SUB SLT ISZERO PUSH2 0x2284 JUMPI PUSH2 0x2283 PUSH2 0x1FC2 JUMP JUMPDEST JUMPDEST PUSH0 PUSH2 0x2291 DUP7 DUP3 DUP8 ADD PUSH2 0x21F3 JUMP JUMPDEST SWAP4 POP POP PUSH1 0x20 PUSH2 0x22A2 DUP7 DUP3 DUP8 ADD PUSH2 0x21F3 JUMP JUMPDEST SWAP3 POP POP PUSH1 0x40 PUSH2 0x22B3 DUP7 DUP3 DUP8 ADD PUSH2 0x2146 JUMP JUMPDEST SWAP2 POP POP SWAP3 POP SWAP3 POP SWAP3 JUMP JUMPDEST PUSH0 PUSH1 0x20 DUP3 DUP5 SUB SLT ISZERO PUSH2 0x22D2 JUMPI PUSH2 0x22D1 PUSH2 0x1FC2 JUMP JUMPDEST JUMPDEST PUSH0 PUSH2 0x22DF DUP5 DUP3 DUP6 ADD PUSH2 0x21F3 JUMP JUMPDEST SWAP2 POP POP SWAP3 SWAP2 POP POP JUMP JUMPDEST PUSH2 0x22F1 DUP2 PUSH2 0x204A JUMP JUMPDEST DUP2 EQ PUSH2 0x22FB JUMPI PUSH0 DUP1 REVERT JUMPDEST POP JUMP JUMPDEST PUSH0 DUP2 CALLDATALOAD SWAP1 POP PUSH2 0x230C DUP2 PUSH2 0x22E8 JUMP JUMPDEST SWAP3 SWAP2 POP POP JUMP JUMPDEST PUSH0 DUP1 PUSH1 0x40 DUP4 DUP6 SUB SLT ISZERO PUSH2 0x2328 JUMPI PUSH2 0x2327 PUSH2 0x1FC2 JUMP JUMPDEST JUMPDEST PUSH0 PUSH2 0x2335 DUP6 DUP3 DUP7 ADD PUSH2 0x21F3 JUMP JUMPDEST SWAP3 POP POP PUSH1 0x20 PUSH2 0x2346 DUP6 DUP3 DUP7 ADD PUSH2 0x22FE JUMP JUMPDEST SWAP2 POP POP SWAP3 POP SWAP3 SWAP1 POP JUMP JUMPDEST PUSH0 DUP1 REVERT JUMPDEST PUSH0 DUP1 REVERT JUMPDEST PUSH32 0x4E487B7100000000000000000000000000000000000000000000000000000000 PUSH0 MSTORE PUSH1 0x41 PUSH1 0x4 MSTORE PUSH1 0x24 PUSH0 REVERT JUMPDEST PUSH2 0x238E DUP3 PUSH2 0x20BF JUMP JUMPDEST DUP2 ADD DUP2 DUP2 LT PUSH8 0xFFFFFFFFFFFFFFFF DUP3 GT OR ISZERO PUSH2 0x23AD JUMPI PUSH2 0x23AC PUSH2 0x2358 JUMP JUMPDEST JUMPDEST DUP1 PUSH1 0x40 MSTORE POP POP POP JUMP JUMPDEST PUSH0 PUSH2 0x23BF PUSH2 0x1FB9 JUMP JUMPDEST SWAP1 POP PUSH2 0x23CB DUP3 DUP3 PUSH2 0x2385 JUMP JUMPDEST SWAP2 SWAP1 POP JUMP JUMPDEST PUSH0 PUSH8 0xFFFFFFFFFFFFFFFF DUP3 GT ISZERO PUSH2 0x23EA JUMPI PUSH2 0x23E9 PUSH2 0x2358 JUMP JUMPDEST JUMPDEST PUSH2 0x23F3 DUP3 PUSH2 0x20BF JUMP JUMPDEST SWAP1 POP PUSH1 0x20 DUP2 ADD SWAP1 POP SWAP2 SWAP1 POP JUMP JUMPDEST DUP3 DUP2 DUP4 CALLDATACOPY PUSH0 DUP4 DUP4 ADD MSTORE POP POP POP JUMP JUMPDEST PUSH0 PUSH2 0x2420 PUSH2 0x241B DUP5 PUSH2 0x23D0 JUMP JUMPDEST PUSH2 0x23B6 JUMP JUMPDEST SWAP1 POP DUP3 DUP2 MSTORE PUSH1 0x20 DUP2 ADD DUP5 DUP5 DUP5 ADD GT ISZERO PUSH2 0x243C JUMPI PUSH2 0x243B PUSH2 0x2354 JUMP JUMPDEST JUMPDEST PUSH2 0x2447 DUP5 DUP3 DUP6 PUSH2 0x2400 JUMP JUMPDEST POP SWAP4 SWAP3 POP POP POP JUMP JUMPDEST PUSH0 DUP3 PUSH1 0x1F DUP4 ADD SLT PUSH2 0x2463 JUMPI PUSH2 0x2462 PUSH2 0x2350 JUMP JUMPDEST JUMPDEST DUP2 CALLDATALOAD PUSH2 0x2473 DUP5 DUP3 PUSH1 0x20 DUP7 ADD PUSH2 0x240E JUMP JUMPDEST SWAP2 POP POP SWAP3 SWAP2 POP POP JUMP JUMPDEST PUSH0 DUP1 PUSH0 DUP1 PUSH1 0x80 DUP6 DUP8 SUB SLT ISZERO PUSH2 0x2494 JUMPI PUSH2 0x2493 PUSH2 0x1FC2 JUMP JUMPDEST JUMPDEST PUSH0 PUSH2 0x24A1 DUP8 DUP3 DUP9 ADD PUSH2 0x21F3 JUMP JUMPDEST SWAP5 POP POP PUSH1 0x20 PUSH2 0x24B2 DUP8 DUP3 DUP9 ADD PUSH2 0x21F3 JUMP JUMPDEST SWAP4 POP POP PUSH1 0x40 PUSH2 0x24C3 DUP8 DUP3 DUP9 ADD PUSH2 0x2146 JUMP JUMPDEST SWAP3 POP POP PUSH1 0x60 DUP6 ADD CALLDATALOAD PUSH8 0xFFFFFFFFFFFFFFFF DUP2 GT ISZERO PUSH2 0x24E4 JUMPI PUSH2 0x24E3 PUSH2 0x1FC6 JUMP JUMPDEST JUMPDEST PUSH2 0x24F0 DUP8 DUP3 DUP9 ADD PUSH2 0x244F JUMP JUMPDEST SWAP2 POP POP SWAP3 SWAP6 SWAP2 SWAP5 POP SWAP3 POP JUMP JUMPDEST PUSH0 DUP1 PUSH1 0x40 DUP4 DUP6 SUB SLT ISZERO PUSH2 0x2512 JUMPI PUSH2 0x2511 PUSH2 0x1FC2 JUMP JUMPDEST JUMPDEST PUSH0 PUSH2 0x251F DUP6 DUP3 DUP7 ADD PUSH2 0x2146 JUMP JUMPDEST SWAP3 POP POP PUSH1 0x20 PUSH2 0x2530 DUP6 DUP3 DUP7 ADD PUSH2 0x21F3 JUMP JUMPDEST SWAP2 POP POP SWAP3 POP SWAP3 SWAP1 POP JUMP JUMPDEST PUSH0 DUP1 PUSH1 0x40 DUP4 DUP6 SUB SLT ISZERO PUSH2 0x2550 JUMPI PUSH2 0x254F PUSH2 0x1FC2 JUMP JUMPDEST JUMPDEST PUSH0 PUSH2 0x255D DUP6 DUP3 DUP7 ADD PUSH2 0x21F3 JUMP JUMPDEST SWAP3 POP POP PUSH1 0x20 PUSH2 0x256E DUP6 DUP3 DUP7 ADD PUSH2 0x21F3 JUMP JUMPDEST SWAP2 POP POP SWAP3 POP SWAP3 SWAP1 POP JUMP JUMPDEST PUSH32 0x4E487B7100000000000000000000000000000000000000000000000000000000 PUSH0 MSTORE PUSH1 0x22 PUSH1 0x4 MSTORE PUSH1 0x24 PUSH0 REVERT JUMPDEST PUSH0 PUSH1 0x2 DUP3 DIV SWAP1 POP PUSH1 0x1 DUP3 AND DUP1 PUSH2 0x25BC JUMPI PUSH1 0x7F DUP3 AND SWAP2 POP JUMPDEST PUSH1 0x20 DUP3 LT DUP2 SUB PUSH2 0x25CF JUMPI PUSH2 0x25CE PUSH2 0x2578 JUMP JUMPDEST JUMPDEST POP SWAP2 SWAP1 POP JUMP JUMPDEST PUSH0 PUSH1 0x60 DUP3 ADD SWAP1 POP PUSH2 0x25E8 PUSH0 DUP4 ADD DUP7 PUSH2 0x21B5 JUMP JUMPDEST PUSH2 0x25F5 PUSH1 0x20 DUP4 ADD DUP6 PUSH2 0x2245 JUMP JUMPDEST PUSH2 0x2602 PUSH1 0x40 DUP4 ADD DUP5 PUSH2 0x21B5 JUMP JUMPDEST SWAP5 SWAP4 POP POP POP POP JUMP JUMPDEST PUSH0 PUSH1 0x40 DUP3 ADD SWAP1 POP PUSH2 0x261D PUSH0 DUP4 ADD DUP6 PUSH2 0x21B5 JUMP JUMPDEST PUSH2 0x262A PUSH1 0x20 DUP4 ADD DUP5 PUSH2 0x2245 JUMP JUMPDEST SWAP4 SWAP3 POP POP POP JUMP JUMPDEST PUSH32 0x4E487B7100000000000000000000000000000000000000000000000000000000 PUSH0 MSTORE PUSH1 0x32 PUSH1 0x4 MSTORE PUSH1 0x24 PUSH0 REVERT JUMPDEST PUSH32 0x4E6F206D6F7265206D696E742E00000000000000000000000000000000000000 PUSH0 DUP3 ADD MSTORE POP JUMP JUMPDEST PUSH0 PUSH2 0x2692 PUSH1 0xD DUP4 PUSH2 0x2087 JUMP JUMPDEST SWAP2 POP PUSH2 0x269D DUP3 PUSH2 0x265E JUMP JUMPDEST PUSH1 0x20 DUP3 ADD SWAP1 POP SWAP2 SWAP1 POP JUMP JUMPDEST PUSH0 PUSH1 0x20 DUP3 ADD SWAP1 POP DUP2 DUP2 SUB PUSH0 DUP4 ADD MSTORE PUSH2 0x26BF DUP2 PUSH2 0x2686 JUMP JUMPDEST SWAP1 POP SWAP2 SWAP1 POP JUMP JUMPDEST PUSH32 0x4E487B7100000000000000000000000000000000000000000000000000000000 PUSH0 MSTORE PUSH1 0x11 PUSH1 0x4 MSTORE PUSH1 0x24 PUSH0 REVERT JUMPDEST PUSH0 PUSH2 0x26FD DUP3 PUSH2 0x2127 JUMP JUMPDEST SWAP2 POP PUSH2 0x2708 DUP4 PUSH2 0x2127 JUMP JUMPDEST SWAP3 POP DUP3 DUP3 ADD SWAP1 POP DUP1 DUP3 GT ISZERO PUSH2 0x2720 JUMPI PUSH2 0x271F PUSH2 0x26C6 JUMP JUMPDEST JUMPDEST SWAP3 SWAP2 POP POP JUMP JUMPDEST PUSH0 DUP2 SWAP1 POP SWAP3 SWAP2 POP POP JUMP JUMPDEST PUSH0 DUP2 SWAP1 POP DUP2 PUSH0 MSTORE PUSH1 0x20 PUSH0 KECCAK256 SWAP1 POP SWAP2 SWAP1 POP JUMP JUMPDEST PUSH0 DUP2 SLOAD PUSH2 0x274E DUP2 PUSH2 0x25A5 JUMP JUMPDEST PUSH2 0x2758 DUP2 DUP7 PUSH2 0x2726 JUMP JUMPDEST SWAP5 POP PUSH1 0x1 DUP3 AND PUSH0 DUP2 EQ PUSH2 0x2772 JUMPI PUSH1 0x1 DUP2 EQ PUSH2 0x2787 JUMPI PUSH2 0x27B9 JUMP JUMPDEST PUSH1 0xFF NOT DUP4 AND DUP7 MSTORE DUP2 ISZERO ISZERO DUP3 MUL DUP7 ADD SWAP4 POP PUSH2 0x27B9 JUMP JUMPDEST PUSH2 0x2790 DUP6 PUSH2 0x2730 JUMP JUMPDEST PUSH0 JUMPDEST DUP4 DUP2 LT ISZERO PUSH2 0x27B1 JUMPI DUP2 SLOAD DUP2 DUP10 ADD MSTORE PUSH1 0x1 DUP3 ADD SWAP2 POP PUSH1 0x20 DUP2 ADD SWAP1 POP PUSH2 0x2792 JUMP JUMPDEST DUP4 DUP9 ADD SWAP6 POP POP POP JUMPDEST POP POP POP SWAP3 SWAP2 POP POP JUMP JUMPDEST PUSH32 0x2F00000000000000000000000000000000000000000000000000000000000000 PUSH0 DUP3 ADD MSTORE POP JUMP JUMPDEST PUSH0 PUSH2 0x27F6 PUSH1 0x1 DUP4 PUSH2 0x2726 JUMP JUMPDEST SWAP2 POP PUSH2 0x2801 DUP3 PUSH2 0x27C2 JUMP JUMPDEST PUSH1 0x1 DUP3 ADD SWAP1 POP SWAP2 SWAP1 POP JUMP JUMPDEST PUSH0 PUSH2 0x2816 DUP3 PUSH2 0x207D JUMP JUMPDEST PUSH2 0x2820 DUP2 DUP6 PUSH2 0x2726 JUMP JUMPDEST SWAP4 POP PUSH2 0x2830 DUP2 DUP6 PUSH1 0x20 DUP7 ADD PUSH2 0x2097 JUMP JUMPDEST DUP1 DUP5 ADD SWAP2 POP POP SWAP3 SWAP2 POP POP JUMP JUMPDEST PUSH32 0x2E6A736F6E000000000000000000000000000000000000000000000000000000 PUSH0 DUP3 ADD MSTORE POP JUMP JUMPDEST PUSH0 PUSH2 0x2870 PUSH1 0x5 DUP4 PUSH2 0x2726 JUMP JUMPDEST SWAP2 POP PUSH2 0x287B DUP3 PUSH2 0x283C JUMP JUMPDEST PUSH1 0x5 DUP3 ADD SWAP1 POP SWAP2 SWAP1 POP JUMP JUMPDEST PUSH0 PUSH2 0x2891 DUP3 DUP6 PUSH2 0x2742 JUMP JUMPDEST SWAP2 POP PUSH2 0x289C DUP3 PUSH2 0x27EA JUMP JUMPDEST SWAP2 POP PUSH2 0x28A8 DUP3 DUP5 PUSH2 0x280C JUMP JUMPDEST SWAP2 POP PUSH2 0x28B3 DUP3 PUSH2 0x2864 JUMP JUMPDEST SWAP2 POP DUP2 SWAP1 POP SWAP4 SWAP3 POP POP POP JUMP JUMPDEST PUSH0 DUP2 MLOAD SWAP1 POP SWAP2 SWAP1 POP JUMP JUMPDEST PUSH0 DUP3 DUP3 MSTORE PUSH1 0x20 DUP3 ADD SWAP1 POP SWAP3 SWAP2 POP POP JUMP JUMPDEST PUSH0 PUSH2 0x28E3 DUP3 PUSH2 0x28BF JUMP JUMPDEST PUSH2 0x28ED DUP2 DUP6 PUSH2 0x28C9 JUMP JUMPDEST SWAP4 POP PUSH2 0x28FD DUP2 DUP6 PUSH1 0x20 DUP7 ADD PUSH2 0x2097 JUMP JUMPDEST PUSH2 0x2906 DUP2 PUSH2 0x20BF JUMP JUMPDEST DUP5 ADD SWAP2 POP POP SWAP3 SWAP2 POP POP JUMP JUMPDEST PUSH0 PUSH1 0x80 DUP3 ADD SWAP1 POP PUSH2 0x2924 PUSH0 DUP4 ADD DUP8 PUSH2 0x21B5 JUMP JUMPDEST PUSH2 0x2931 PUSH1 0x20 DUP4 ADD DUP7 PUSH2 0x21B5 JUMP JUMPDEST PUSH2 0x293E PUSH1 0x40 DUP4 ADD DUP6 PUSH2 0x2245 JUMP JUMPDEST DUP2 DUP2 SUB PUSH1 0x60 DUP4 ADD MSTORE PUSH2 0x2950 DUP2 DUP5 PUSH2 0x28D9 JUMP JUMPDEST SWAP1 POP SWAP6 SWAP5 POP POP POP POP POP JUMP JUMPDEST PUSH0 DUP2 MLOAD SWAP1 POP PUSH2 0x2969 DUP2 PUSH2 0x1FF5 JUMP JUMPDEST SWAP3 SWAP2 POP POP JUMP JUMPDEST PUSH0 PUSH1 0x20 DUP3 DUP5 SUB SLT ISZERO PUSH2 0x2984 JUMPI PUSH2 0x2983 PUSH2 0x1FC2 JUMP JUMPDEST JUMPDEST PUSH0 PUSH2 0x2991 DUP5 DUP3 DUP6 ADD PUSH2 0x295B JUMP JUMPDEST SWAP2 POP POP SWAP3 SWAP2 POP POP JUMP JUMPDEST PUSH32 0x4E487B7100000000000000000000000000000000000000000000000000000000 PUSH0 MSTORE PUSH1 0x12 PUSH1 0x4 MSTORE PUSH1 0x24 PUSH0 REVERT JUMPDEST PUSH0 PUSH2 0x29D1 DUP3 PUSH2 0x2127 JUMP JUMPDEST SWAP2 POP PUSH2 0x29DC DUP4 PUSH2 0x2127 JUMP JUMPDEST SWAP3 POP DUP3 DUP3 SUB SWAP1 POP DUP2 DUP2 GT ISZERO PUSH2 0x29F4 JUMPI PUSH2 0x29F3 PUSH2 0x26C6 JUMP JUMPDEST JUMPDEST SWAP3 SWAP2 POP POP JUMP JUMPDEST PUSH32 0x4E487B7100000000000000000000000000000000000000000000000000000000 PUSH0 MSTORE PUSH1 0x31 PUSH1 0x4 MSTORE PUSH1 0x24 PUSH0 REVERT INVALID LOG2 PUSH5 0x6970667358 0x22 SLT KECCAK256 0x5D SIGNEXTEND 0xB0 SWAP14 CODESIZE ADDMOD SWAP7 SWAP6 RETURN 0x2E 0xCD RETURNDATACOPY 0xB5 0xBC 0xC3 CODESIZE DUP5 0xC5 0xB8 KECCAK256 SWAP16 DUP13 0xA5 SWAP10 XOR PUSH11 0xF6B223E861D064736F6C63 NUMBER STOP ADDMOD OR STOP CALLER "
		},
		"gasEstimates": {
			"creation": {
				"codeDepositCost": "2169000",
				"executionCost": "infinite",
				"totalCost": "infinite"
			},
			"external": {
				"approve(address,uint256)": "infinite",
				"balanceOf(address)": "infinite",
				"batchMintHouseNFT(uint256,address)": "infinite",
				"getApproved(uint256)": "infinite",
				"isApprovedForAll(address,address)": "infinite",
				"isRevealed(uint256)": "2896",
				"mintHouseNFT()": "infinite",
				"name()": "infinite",
				"owner()": "2582",
				"ownerOf(uint256)": "infinite",
				"renounceOwnership()": "infinite",
				"reveal(uint256)": "24787",
				"safeTransferFrom(address,address,uint256)": "infinite",
				"safeTransferFrom(address,address,uint256,bytes)": "infinite",
				"setApprovalForAll(address,bool)": "infinite",
				"supportsInterface(bytes4)": "875",
				"symbol()": "infinite",
				"tokenByIndex(uint256)": "infinite",
				"tokenOfOwnerByIndex(address,uint256)": "infinite",
				"tokenURI(uint256)": "infinite",
				"totalSupply()": "2552",
				"transferFrom(address,address,uint256)": "infinite",
				"transferOwnership(address)": "infinite"
			}
		},
		"methodIdentifiers": {
			"approve(address,uint256)": "095ea7b3",
			"balanceOf(address)": "70a08231",
			"batchMintHouseNFT(uint256,address)": "c46ccf3d",
			"getApproved(uint256)": "081812fc",
			"isApprovedForAll(address,address)": "e985e9c5",
			"isRevealed(uint256)": "5055fbc3",
			"mintHouseNFT()": "bc9a121f",
			"name()": "06fdde03",
			"owner()": "8da5cb5b",
			"ownerOf(uint256)": "6352211e",
			"renounceOwnership()": "715018a6",
			"reveal(uint256)": "c2ca0ac5",
			"safeTransferFrom(address,address,uint256)": "42842e0e",
			"safeTransferFrom(address,address,uint256,bytes)": "b88d4fde",
			"setApprovalForAll(address,bool)": "a22cb465",
			"supportsInterface(bytes4)": "01ffc9a7",
			"symbol()": "95d89b41",
			"tokenByIndex(uint256)": "4f6ccce7",
			"tokenOfOwnerByIndex(address,uint256)": "2f745c59",
			"tokenURI(uint256)": "c87b56dd",
			"totalSupply()": "18160ddd",
			"transferFrom(address,address,uint256)": "23b872dd",
			"transferOwnership(address)": "f2fde38b"
		}
	},
	"abi": [
		{
			"inputs": [
				{
					"internalType": "string",
					"name": "_name",
					"type": "string"
				},
				{
					"internalType": "string",
					"name": "_notRevealedURI",
					"type": "string"
				},
				{
					"internalType": "string",
					"name": "_symbol",
					"type": "string"
				},
				{
					"internalType": "uint256",
					"name": "_maxSupply",
					"type": "uint256"
				},
				{
					"internalType": "string",
					"name": "_metadataURI",
					"type": "string"
				}
			],
			"stateMutability": "nonpayable",
			"type": "constructor"
		},
		{
			"inputs": [],
			"name": "ERC721EnumerableForbiddenBatchMint",
			"type": "error"
		},
		{
			"inputs": [
				{
					"internalType": "address",
					"name": "sender",
					"type": "address"
				},
				{
					"internalType": "uint256",
					"name": "tokenId",
					"type": "uint256"
				},
				{
					"internalType": "address",
					"name": "owner",
					"type": "address"
				}
			],
			"name": "ERC721IncorrectOwner",
			"type": "error"
		},
		{
			"inputs": [
				{
					"internalType": "address",
					"name": "operator",
					"type": "address"
				},
				{
					"internalType": "uint256",
					"name": "tokenId",
					"type": "uint256"
				}
			],
			"name": "ERC721InsufficientApproval",
			"type": "error"
		},
		{
			"inputs": [
				{
					"internalType": "address",
					"name": "approver",
					"type": "address"
				}
			],
			"name": "ERC721InvalidApprover",
			"type": "error"
		},
		{
			"inputs": [
				{
					"internalType": "address",
					"name": "operator",
					"type": "address"
				}
			],
			"name": "ERC721InvalidOperator",
			"type": "error"
		},
		{
			"inputs": [
				{
					"internalType": "address",
					"name": "owner",
					"type": "address"
				}
			],
			"name": "ERC721InvalidOwner",
			"type": "error"
		},
		{
			"inputs": [
				{
					"internalType": "address",
					"name": "receiver",
					"type": "address"
				}
			],
			"name": "ERC721InvalidReceiver",
			"type": "error"
		},
		{
			"inputs": [
				{
					"internalType": "address",
					"name": "sender",
					"type": "address"
				}
			],
			"name": "ERC721InvalidSender",
			"type": "error"
		},
		{
			"inputs": [
				{
					"internalType": "uint256",
					"name": "tokenId",
					"type": "uint256"
				}
			],
			"name": "ERC721NonexistentToken",
			"type": "error"
		},
		{
			"inputs": [
				{
					"internalType": "address",
					"name": "owner",
					"type": "address"
				},
				{
					"internalType": "uint256",
					"name": "index",
					"type": "uint256"
				}
			],
			"name": "ERC721OutOfBoundsIndex",
			"type": "error"
		},
		{
			"inputs": [
				{
					"internalType": "address",
					"name": "owner",
					"type": "address"
				}
			],
			"name": "OwnableInvalidOwner",
			"type": "error"
		},
		{
			"inputs": [
				{
					"internalType": "address",
					"name": "account",
					"type": "address"
				}
			],
			"name": "OwnableUnauthorizedAccount",
			"type": "error"
		},
		{
			"anonymous": false,
			"inputs": [
				{
					"indexed": true,
					"internalType": "address",
					"name": "owner",
					"type": "address"
				},
				{
					"indexed": true,
					"internalType": "address",
					"name": "approved",
					"type": "address"
				},
				{
					"indexed": true,
					"internalType": "uint256",
					"name": "tokenId",
					"type": "uint256"
				}
			],
			"name": "Approval",
			"type": "event"
		},
		{
			"anonymous": false,
			"inputs": [
				{
					"indexed": true,
					"internalType": "address",
					"name": "owner",
					"type": "address"
				},
				{
					"indexed": true,
					"internalType": "address",
					"name": "operator",
					"type": "address"
				},
				{
					"indexed": false,
					"internalType": "bool",
					"name": "approved",
					"type": "bool"
				}
			],
			"name": "ApprovalForAll",
			"type": "event"
		},
		{
			"anonymous": false,
			"inputs": [
				{
					"indexed": true,
					"internalType": "address",
					"name": "previousOwner",
					"type": "address"
				},
				{
					"indexed": true,
					"internalType": "address",
					"name": "newOwner",
					"type": "address"
				}
			],
			"name": "OwnershipTransferred",
			"type": "event"
		},
		{
			"anonymous": false,
			"inputs": [
				{
					"indexed": true,
					"internalType": "address",
					"name": "from",
					"type": "address"
				},
				{
					"indexed": true,
					"internalType": "address",
					"name": "to",
					"type": "address"
				},
				{
					"indexed": true,
					"internalType": "uint256",
					"name": "tokenId",
					"type": "uint256"
				}
			],
			"name": "Transfer",
			"type": "event"
		},
		{
			"inputs": [
				{
					"internalType": "address",
					"name": "to",
					"type": "address"
				},
				{
					"internalType": "uint256",
					"name": "tokenId",
					"type": "uint256"
				}
			],
			"name": "approve",
			"outputs": [],
			"stateMutability": "nonpayable",
			"type": "function"
		},
		{
			"inputs": [
				{
					"internalType": "address",
					"name": "owner",
					"type": "address"
				}
			],
			"name": "balanceOf",
			"outputs": [
				{
					"internalType": "uint256",
					"name": "",
					"type": "uint256"
				}
			],
			"stateMutability": "view",
			"type": "function"
		},
		{
			"inputs": [
				{
					"internalType": "uint256",
					"name": "_amount",
					"type": "uint256"
				},
				{
					"internalType": "address",
					"name": "_transferHouseContract",
					"type": "address"
				}
			],
			"name": "batchMintHouseNFT",
			"outputs": [],
			"stateMutability": "nonpayable",
			"type": "function"
		},
		{
			"inputs": [
				{
					"internalType": "uint256",
					"name": "tokenId",
					"type": "uint256"
				}
			],
			"name": "getApproved",
			"outputs": [
				{
					"internalType": "address",
					"name": "",
					"type": "address"
				}
			],
			"stateMutability": "view",
			"type": "function"
		},
		{
			"inputs": [
				{
					"internalType": "address",
					"name": "owner",
					"type": "address"
				},
				{
					"internalType": "address",
					"name": "operator",
					"type": "address"
				}
			],
			"name": "isApprovedForAll",
			"outputs": [
				{
					"internalType": "bool",
					"name": "",
					"type": "bool"
				}
			],
			"stateMutability": "view",
			"type": "function"
		},
		{
			"inputs": [
				{
					"internalType": "uint256",
					"name": "",
					"type": "uint256"
				}
			],
			"name": "isRevealed",
			"outputs": [
				{
					"internalType": "bool",
					"name": "",
					"type": "bool"
				}
			],
			"stateMutability": "view",
			"type": "function"
		},
		{
			"inputs": [],
			"name": "mintHouseNFT",
			"outputs": [],
			"stateMutability": "nonpayable",
			"type": "function"
		},
		{
			"inputs": [],
			"name": "name",
			"outputs": [
				{
					"internalType": "string",
					"name": "",
					"type": "string"
				}
			],
			"stateMutability": "view",
			"type": "function"
		},
		{
			"inputs": [],
			"name": "owner",
			"outputs": [
				{
					"internalType": "address",
					"name": "",
					"type": "address"
				}
			],
			"stateMutability": "view",
			"type": "function"
		},
		{
			"inputs": [
				{
					"internalType": "uint256",
					"name": "tokenId",
					"type": "uint256"
				}
			],
			"name": "ownerOf",
			"outputs": [
				{
					"internalType": "address",
					"name": "",
					"type": "address"
				}
			],
			"stateMutability": "view",
			"type": "function"
		},
		{
			"inputs": [],
			"name": "renounceOwnership",
			"outputs": [],
			"stateMutability": "nonpayable",
			"type": "function"
		},
		{
			"inputs": [
				{
					"internalType": "uint256",
					"name": "_tokenId",
					"type": "uint256"
				}
			],
			"name": "reveal",
			"outputs": [],
			"stateMutability": "nonpayable",
			"type": "function"
		},
		{
			"inputs": [
				{
					"internalType": "address",
					"name": "from",
					"type": "address"
				},
				{
					"internalType": "address",
					"name": "to",
					"type": "address"
				},
				{
					"internalType": "uint256",
					"name": "tokenId",
					"type": "uint256"
				}
			],
			"name": "safeTransferFrom",
			"outputs": [],
			"stateMutability": "nonpayable",
			"type": "function"
		},
		{
			"inputs": [
				{
					"internalType": "address",
					"name": "from",
					"type": "address"
				},
				{
					"internalType": "address",
					"name": "to",
					"type": "address"
				},
				{
					"internalType": "uint256",
					"name": "tokenId",
					"type": "uint256"
				},
				{
					"internalType": "bytes",
					"name": "data",
					"type": "bytes"
				}
			],
			"name": "safeTransferFrom",
			"outputs": [],
			"stateMutability": "nonpayable",
			"type": "function"
		},
		{
			"inputs": [
				{
					"internalType": "address",
					"name": "operator",
					"type": "address"
				},
				{
					"internalType": "bool",
					"name": "approved",
					"type": "bool"
				}
			],
			"name": "setApprovalForAll",
			"outputs": [],
			"stateMutability": "nonpayable",
			"type": "function"
		},
		{
			"inputs": [
				{
					"internalType": "bytes4",
					"name": "interfaceId",
					"type": "bytes4"
				}
			],
			"name": "supportsInterface",
			"outputs": [
				{
					"internalType": "bool",
					"name": "",
					"type": "bool"
				}
			],
			"stateMutability": "view",
			"type": "function"
		},
		{
			"inputs": [],
			"name": "symbol",
			"outputs": [
				{
					"internalType": "string",
					"name": "",
					"type": "string"
				}
			],
			"stateMutability": "view",
			"type": "function"
		},
		{
			"inputs": [
				{
					"internalType": "uint256",
					"name": "index",
					"type": "uint256"
				}
			],
			"name": "tokenByIndex",
			"outputs": [
				{
					"internalType": "uint256",
					"name": "",
					"type": "uint256"
				}
			],
			"stateMutability": "view",
			"type": "function"
		},
		{
			"inputs": [
				{
					"internalType": "address",
					"name": "owner",
					"type": "address"
				},
				{
					"internalType": "uint256",
					"name": "index",
					"type": "uint256"
				}
			],
			"name": "tokenOfOwnerByIndex",
			"outputs": [
				{
					"internalType": "uint256",
					"name": "",
					"type": "uint256"
				}
			],
			"stateMutability": "view",
			"type": "function"
		},
		{
			"inputs": [
				{
					"internalType": "uint256",
					"name": "_tokenId",
					"type": "uint256"
				}
			],
			"name": "tokenURI",
			"outputs": [
				{
					"internalType": "string",
					"name": "",
					"type": "string"
				}
			],
			"stateMutability": "view",
			"type": "function"
		},
		{
			"inputs": [],
			"name": "totalSupply",
			"outputs": [
				{
					"internalType": "uint256",
					"name": "",
					"type": "uint256"
				}
			],
			"stateMutability": "view",
			"type": "function"
		},
		{
			"inputs": [
				{
					"internalType": "address",
					"name": "from",
					"type": "address"
				},
				{
					"internalType": "address",
					"name": "to",
					"type": "address"
				},
				{
					"internalType": "uint256",
					"name": "tokenId",
					"type": "uint256"
				}
			],
			"name": "transferFrom",
			"outputs": [],
			"stateMutability": "nonpayable",
			"type": "function"
		},
		{
			"inputs": [
				{
					"internalType": "address",
					"name": "newOwner",
					"type": "address"
				}
			],
			"name": "transferOwnership",
			"outputs": [],
			"stateMutability": "nonpayable",
			"type": "function"
		}
	]
}