{
	"data": {
		"bytecode": {
			"linkReferences": {},
			"object": "608060405234801561000f575f80fd5b5061070e8061001d5f395ff3fe60806040526004361061001d575f3560e01c80635f0b835714610021575b5f80fd5b61003b60048036038101906100369190610344565b61003d565b005b5f8390508073ffffffffffffffffffffffffffffffffffffffff1663e985e9c585306040518363ffffffff1660e01b815260040161007c9291906103a3565b602060405180830381865afa158015610097573d5f803e3d5ffd5b505050506040513d601f19601f820116820180604052508101906100bb91906103ff565b6100fa576040517f08c379a00000000000000000000000000000000000000000000000000000000081526004016100f190610484565b60405180910390fd5b5f8173ffffffffffffffffffffffffffffffffffffffff1662fdd58e86866040518363ffffffff1660e01b81526004016101359291906104b1565b602060405180830381865afa158015610150573d5f803e3d5ffd5b505050506040513d601f19601f8201168201806040525081019061017491906104ec565b116101b4576040517f08c379a00000000000000000000000000000000000000000000000000000000081526004016101ab90610561565b60405180910390fd5b6509184e72a00034146101fc576040517f08c379a00000000000000000000000000000000000000000000000000000000081526004016101f3906105ef565b60405180910390fd5b8173ffffffffffffffffffffffffffffffffffffffff166108fc3490811502906040515f60405180830381858888f1935050505015801561023f573d5f803e3d5ffd5b508073ffffffffffffffffffffffffffffffffffffffff1663f242432a85338660016040518563ffffffff1660e01b81526004016102809493929190610682565b5f604051808303815f87803b158015610297575f80fd5b505af11580156102a9573d5f803e3d5ffd5b5050505050505050565b5f80fd5b5f73ffffffffffffffffffffffffffffffffffffffff82169050919050565b5f6102e0826102b7565b9050919050565b6102f0816102d6565b81146102fa575f80fd5b50565b5f8135905061030b816102e7565b92915050565b5f819050919050565b61032381610311565b811461032d575f80fd5b50565b5f8135905061033e8161031a565b92915050565b5f805f6060848603121561035b5761035a6102b3565b5b5f610368868287016102fd565b935050602061037986828701610330565b925050604061038a868287016102fd565b9150509250925092565b61039d816102d6565b82525050565b5f6040820190506103b65f830185610394565b6103c36020830184610394565b9392505050565b5f8115159050919050565b6103de816103ca565b81146103e8575f80fd5b50565b5f815190506103f9816103d5565b92915050565b5f60208284031215610414576104136102b3565b5b5f610421848285016103eb565b91505092915050565b5f82825260208201905092915050565b7f4e4654206f776e657220646964206e6f7420617070726f766520746f6b656e2e5f82015250565b5f61046e60208361042a565b91506104798261043a565b602082019050919050565b5f6020820190508181035f83015261049b81610462565b9050919050565b6104ab81610311565b82525050565b5f6040820190506104c45f830185610394565b6104d160208301846104a2565b9392505050565b5f815190506104e68161031a565b92915050565b5f60208284031215610501576105006102b3565b5b5f61050e848285016104d8565b91505092915050565b7f54686973204e465420697320736f6c64206f75742e00000000000000000000005f82015250565b5f61054b60158361042a565b915061055682610517565b602082019050919050565b5f6020820190508181035f8301526105788161053f565b9050919050565b7f4f6e6c7920302e303030303120657468657220616c6c6f77656420746f2062655f8201527f207472616e7366657265642e0000000000000000000000000000000000000000602082015250565b5f6105d9602c8361042a565b91506105e48261057f565b604082019050919050565b5f6020820190508181035f830152610606816105cd565b9050919050565b5f819050919050565b5f819050919050565b5f61063961063461062f8461060d565b610616565b610311565b9050919050565b6106498161061f565b82525050565b5f82825260208201905092915050565b50565b5f61066d5f8361064f565b91506106788261065f565b5f82019050919050565b5f60a0820190506106955f830187610394565b6106a26020830186610394565b6106af60408301856104a2565b6106bc6060830184610640565b81810360808301526106cd81610662565b90509594505050505056fea2646970667358221220d139c55513c56c2a16c7e85d02a7682f213ffe39fa2908e6810d1b880dfc86c564736f6c63430008170033",
			"opcodes": "PUSH1 0x80 PUSH1 0x40 MSTORE CALLVALUE DUP1 ISZERO PUSH2 0xF JUMPI PUSH0 DUP1 REVERT JUMPDEST POP PUSH2 0x70E DUP1 PUSH2 0x1D PUSH0 CODECOPY PUSH0 RETURN INVALID PUSH1 0x80 PUSH1 0x40 MSTORE PUSH1 0x4 CALLDATASIZE LT PUSH2 0x1D JUMPI PUSH0 CALLDATALOAD PUSH1 0xE0 SHR DUP1 PUSH4 0x5F0B8357 EQ PUSH2 0x21 JUMPI JUMPDEST PUSH0 DUP1 REVERT JUMPDEST PUSH2 0x3B PUSH1 0x4 DUP1 CALLDATASIZE SUB DUP2 ADD SWAP1 PUSH2 0x36 SWAP2 SWAP1 PUSH2 0x344 JUMP JUMPDEST PUSH2 0x3D JUMP JUMPDEST STOP JUMPDEST PUSH0 DUP4 SWAP1 POP DUP1 PUSH20 0xFFFFFFFFFFFFFFFFFFFFFFFFFFFFFFFFFFFFFFFF AND PUSH4 0xE985E9C5 DUP6 ADDRESS PUSH1 0x40 MLOAD DUP4 PUSH4 0xFFFFFFFF AND PUSH1 0xE0 SHL DUP2 MSTORE PUSH1 0x4 ADD PUSH2 0x7C SWAP3 SWAP2 SWAP1 PUSH2 0x3A3 JUMP JUMPDEST PUSH1 0x20 PUSH1 0x40 MLOAD DUP1 DUP4 SUB DUP2 DUP7 GAS STATICCALL ISZERO DUP1 ISZERO PUSH2 0x97 JUMPI RETURNDATASIZE PUSH0 DUP1 RETURNDATACOPY RETURNDATASIZE PUSH0 REVERT JUMPDEST POP POP POP POP PUSH1 0x40 MLOAD RETURNDATASIZE PUSH1 0x1F NOT PUSH1 0x1F DUP3 ADD AND DUP3 ADD DUP1 PUSH1 0x40 MSTORE POP DUP2 ADD SWAP1 PUSH2 0xBB SWAP2 SWAP1 PUSH2 0x3FF JUMP JUMPDEST PUSH2 0xFA JUMPI PUSH1 0x40 MLOAD PUSH32 0x8C379A000000000000000000000000000000000000000000000000000000000 DUP2 MSTORE PUSH1 0x4 ADD PUSH2 0xF1 SWAP1 PUSH2 0x484 JUMP JUMPDEST PUSH1 0x40 MLOAD DUP1 SWAP2 SUB SWAP1 REVERT JUMPDEST PUSH0 DUP2 PUSH20 0xFFFFFFFFFFFFFFFFFFFFFFFFFFFFFFFFFFFFFFFF AND PUSH3 0xFDD58E DUP7 DUP7 PUSH1 0x40 MLOAD DUP4 PUSH4 0xFFFFFFFF AND PUSH1 0xE0 SHL DUP2 MSTORE PUSH1 0x4 ADD PUSH2 0x135 SWAP3 SWAP2 SWAP1 PUSH2 0x4B1 JUMP JUMPDEST PUSH1 0x20 PUSH1 0x40 MLOAD DUP1 DUP4 SUB DUP2 DUP7 GAS STATICCALL ISZERO DUP1 ISZERO PUSH2 0x150 JUMPI RETURNDATASIZE PUSH0 DUP1 RETURNDATACOPY RETURNDATASIZE PUSH0 REVERT JUMPDEST POP POP POP POP PUSH1 0x40 MLOAD RETURNDATASIZE PUSH1 0x1F NOT PUSH1 0x1F DUP3 ADD AND DUP3 ADD DUP1 PUSH1 0x40 MSTORE POP DUP2 ADD SWAP1 PUSH2 0x174 SWAP2 SWAP1 PUSH2 0x4EC JUMP JUMPDEST GT PUSH2 0x1B4 JUMPI PUSH1 0x40 MLOAD PUSH32 0x8C379A000000000000000000000000000000000000000000000000000000000 DUP2 MSTORE PUSH1 0x4 ADD PUSH2 0x1AB SWAP1 PUSH2 0x561 JUMP JUMPDEST PUSH1 0x40 MLOAD DUP1 SWAP2 SUB SWAP1 REVERT JUMPDEST PUSH6 0x9184E72A000 CALLVALUE EQ PUSH2 0x1FC JUMPI PUSH1 0x40 MLOAD PUSH32 0x8C379A000000000000000000000000000000000000000000000000000000000 DUP2 MSTORE PUSH1 0x4 ADD PUSH2 0x1F3 SWAP1 PUSH2 0x5EF JUMP JUMPDEST PUSH1 0x40 MLOAD DUP1 SWAP2 SUB SWAP1 REVERT JUMPDEST DUP2 PUSH20 0xFFFFFFFFFFFFFFFFFFFFFFFFFFFFFFFFFFFFFFFF AND PUSH2 0x8FC CALLVALUE SWAP1 DUP2 ISZERO MUL SWAP1 PUSH1 0x40 MLOAD PUSH0 PUSH1 0x40 MLOAD DUP1 DUP4 SUB DUP2 DUP6 DUP9 DUP9 CALL SWAP4 POP POP POP POP ISZERO DUP1 ISZERO PUSH2 0x23F JUMPI RETURNDATASIZE PUSH0 DUP1 RETURNDATACOPY RETURNDATASIZE PUSH0 REVERT JUMPDEST POP DUP1 PUSH20 0xFFFFFFFFFFFFFFFFFFFFFFFFFFFFFFFFFFFFFFFF AND PUSH4 0xF242432A DUP6 CALLER DUP7 PUSH1 0x1 PUSH1 0x40 MLOAD DUP6 PUSH4 0xFFFFFFFF AND PUSH1 0xE0 SHL DUP2 MSTORE PUSH1 0x4 ADD PUSH2 0x280 SWAP5 SWAP4 SWAP3 SWAP2 SWAP1 PUSH2 0x682 JUMP JUMPDEST PUSH0 PUSH1 0x40 MLOAD DUP1 DUP4 SUB DUP2 PUSH0 DUP8 DUP1 EXTCODESIZE ISZERO DUP1 ISZERO PUSH2 0x297 JUMPI PUSH0 DUP1 REVERT JUMPDEST POP GAS CALL ISZERO DUP1 ISZERO PUSH2 0x2A9 JUMPI RETURNDATASIZE PUSH0 DUP1 RETURNDATACOPY RETURNDATASIZE PUSH0 REVERT JUMPDEST POP POP POP POP POP POP POP POP JUMP JUMPDEST PUSH0 DUP1 REVERT JUMPDEST PUSH0 PUSH20 0xFFFFFFFFFFFFFFFFFFFFFFFFFFFFFFFFFFFFFFFF DUP3 AND SWAP1 POP SWAP2 SWAP1 POP JUMP JUMPDEST PUSH0 PUSH2 0x2E0 DUP3 PUSH2 0x2B7 JUMP JUMPDEST SWAP1 POP SWAP2 SWAP1 POP JUMP JUMPDEST PUSH2 0x2F0 DUP2 PUSH2 0x2D6 JUMP JUMPDEST DUP2 EQ PUSH2 0x2FA JUMPI PUSH0 DUP1 REVERT JUMPDEST POP JUMP JUMPDEST PUSH0 DUP2 CALLDATALOAD SWAP1 POP PUSH2 0x30B DUP2 PUSH2 0x2E7 JUMP JUMPDEST SWAP3 SWAP2 POP POP JUMP JUMPDEST PUSH0 DUP2 SWAP1 POP SWAP2 SWAP1 POP JUMP JUMPDEST PUSH2 0x323 DUP2 PUSH2 0x311 JUMP JUMPDEST DUP2 EQ PUSH2 0x32D JUMPI PUSH0 DUP1 REVERT JUMPDEST POP JUMP JUMPDEST PUSH0 DUP2 CALLDATALOAD SWAP1 POP PUSH2 0x33E DUP2 PUSH2 0x31A JUMP JUMPDEST SWAP3 SWAP2 POP POP JUMP JUMPDEST PUSH0 DUP1 PUSH0 PUSH1 0x60 DUP5 DUP7 SUB SLT ISZERO PUSH2 0x35B JUMPI PUSH2 0x35A PUSH2 0x2B3 JUMP JUMPDEST JUMPDEST PUSH0 PUSH2 0x368 DUP7 DUP3 DUP8 ADD PUSH2 0x2FD JUMP JUMPDEST SWAP4 POP POP PUSH1 0x20 PUSH2 0x379 DUP7 DUP3 DUP8 ADD PUSH2 0x330 JUMP JUMPDEST SWAP3 POP POP PUSH1 0x40 PUSH2 0x38A DUP7 DUP3 DUP8 ADD PUSH2 0x2FD JUMP JUMPDEST SWAP2 POP POP SWAP3 POP SWAP3 POP SWAP3 JUMP JUMPDEST PUSH2 0x39D DUP2 PUSH2 0x2D6 JUMP JUMPDEST DUP3 MSTORE POP POP JUMP JUMPDEST PUSH0 PUSH1 0x40 DUP3 ADD SWAP1 POP PUSH2 0x3B6 PUSH0 DUP4 ADD DUP6 PUSH2 0x394 JUMP JUMPDEST PUSH2 0x3C3 PUSH1 0x20 DUP4 ADD DUP5 PUSH2 0x394 JUMP JUMPDEST SWAP4 SWAP3 POP POP POP JUMP JUMPDEST PUSH0 DUP2 ISZERO ISZERO SWAP1 POP SWAP2 SWAP1 POP JUMP JUMPDEST PUSH2 0x3DE DUP2 PUSH2 0x3CA JUMP JUMPDEST DUP2 EQ PUSH2 0x3E8 JUMPI PUSH0 DUP1 REVERT JUMPDEST POP JUMP JUMPDEST PUSH0 DUP2 MLOAD SWAP1 POP PUSH2 0x3F9 DUP2 PUSH2 0x3D5 JUMP JUMPDEST SWAP3 SWAP2 POP POP JUMP JUMPDEST PUSH0 PUSH1 0x20 DUP3 DUP5 SUB SLT ISZERO PUSH2 0x414 JUMPI PUSH2 0x413 PUSH2 0x2B3 JUMP JUMPDEST JUMPDEST PUSH0 PUSH2 0x421 DUP5 DUP3 DUP6 ADD PUSH2 0x3EB JUMP JUMPDEST SWAP2 POP POP SWAP3 SWAP2 POP POP JUMP JUMPDEST PUSH0 DUP3 DUP3 MSTORE PUSH1 0x20 DUP3 ADD SWAP1 POP SWAP3 SWAP2 POP POP JUMP JUMPDEST PUSH32 0x4E4654206F776E657220646964206E6F7420617070726F766520746F6B656E2E PUSH0 DUP3 ADD MSTORE POP JUMP JUMPDEST PUSH0 PUSH2 0x46E PUSH1 0x20 DUP4 PUSH2 0x42A JUMP JUMPDEST SWAP2 POP PUSH2 0x479 DUP3 PUSH2 0x43A JUMP JUMPDEST PUSH1 0x20 DUP3 ADD SWAP1 POP SWAP2 SWAP1 POP JUMP JUMPDEST PUSH0 PUSH1 0x20 DUP3 ADD SWAP1 POP DUP2 DUP2 SUB PUSH0 DUP4 ADD MSTORE PUSH2 0x49B DUP2 PUSH2 0x462 JUMP JUMPDEST SWAP1 POP SWAP2 SWAP1 POP JUMP JUMPDEST PUSH2 0x4AB DUP2 PUSH2 0x311 JUMP JUMPDEST DUP3 MSTORE POP POP JUMP JUMPDEST PUSH0 PUSH1 0x40 DUP3 ADD SWAP1 POP PUSH2 0x4C4 PUSH0 DUP4 ADD DUP6 PUSH2 0x394 JUMP JUMPDEST PUSH2 0x4D1 PUSH1 0x20 DUP4 ADD DUP5 PUSH2 0x4A2 JUMP JUMPDEST SWAP4 SWAP3 POP POP POP JUMP JUMPDEST PUSH0 DUP2 MLOAD SWAP1 POP PUSH2 0x4E6 DUP2 PUSH2 0x31A JUMP JUMPDEST SWAP3 SWAP2 POP POP JUMP JUMPDEST PUSH0 PUSH1 0x20 DUP3 DUP5 SUB SLT ISZERO PUSH2 0x501 JUMPI PUSH2 0x500 PUSH2 0x2B3 JUMP JUMPDEST JUMPDEST PUSH0 PUSH2 0x50E DUP5 DUP3 DUP6 ADD PUSH2 0x4D8 JUMP JUMPDEST SWAP2 POP POP SWAP3 SWAP2 POP POP JUMP JUMPDEST PUSH32 0x54686973204E465420697320736F6C64206F75742E0000000000000000000000 PUSH0 DUP3 ADD MSTORE POP JUMP JUMPDEST PUSH0 PUSH2 0x54B PUSH1 0x15 DUP4 PUSH2 0x42A JUMP JUMPDEST SWAP2 POP PUSH2 0x556 DUP3 PUSH2 0x517 JUMP JUMPDEST PUSH1 0x20 DUP3 ADD SWAP1 POP SWAP2 SWAP1 POP JUMP JUMPDEST PUSH0 PUSH1 0x20 DUP3 ADD SWAP1 POP DUP2 DUP2 SUB PUSH0 DUP4 ADD MSTORE PUSH2 0x578 DUP2 PUSH2 0x53F JUMP JUMPDEST SWAP1 POP SWAP2 SWAP1 POP JUMP JUMPDEST PUSH32 0x4F6E6C7920302E303030303120657468657220616C6C6F77656420746F206265 PUSH0 DUP3 ADD MSTORE PUSH32 0x207472616E7366657265642E0000000000000000000000000000000000000000 PUSH1 0x20 DUP3 ADD MSTORE POP JUMP JUMPDEST PUSH0 PUSH2 0x5D9 PUSH1 0x2C DUP4 PUSH2 0x42A JUMP JUMPDEST SWAP2 POP PUSH2 0x5E4 DUP3 PUSH2 0x57F JUMP JUMPDEST PUSH1 0x40 DUP3 ADD SWAP1 POP SWAP2 SWAP1 POP JUMP JUMPDEST PUSH0 PUSH1 0x20 DUP3 ADD SWAP1 POP DUP2 DUP2 SUB PUSH0 DUP4 ADD MSTORE PUSH2 0x606 DUP2 PUSH2 0x5CD JUMP JUMPDEST SWAP1 POP SWAP2 SWAP1 POP JUMP JUMPDEST PUSH0 DUP2 SWAP1 POP SWAP2 SWAP1 POP JUMP JUMPDEST PUSH0 DUP2 SWAP1 POP SWAP2 SWAP1 POP JUMP JUMPDEST PUSH0 PUSH2 0x639 PUSH2 0x634 PUSH2 0x62F DUP5 PUSH2 0x60D JUMP JUMPDEST PUSH2 0x616 JUMP JUMPDEST PUSH2 0x311 JUMP JUMPDEST SWAP1 POP SWAP2 SWAP1 POP JUMP JUMPDEST PUSH2 0x649 DUP2 PUSH2 0x61F JUMP JUMPDEST DUP3 MSTORE POP POP JUMP JUMPDEST PUSH0 DUP3 DUP3 MSTORE PUSH1 0x20 DUP3 ADD SWAP1 POP SWAP3 SWAP2 POP POP JUMP JUMPDEST POP JUMP JUMPDEST PUSH0 PUSH2 0x66D PUSH0 DUP4 PUSH2 0x64F JUMP JUMPDEST SWAP2 POP PUSH2 0x678 DUP3 PUSH2 0x65F JUMP JUMPDEST PUSH0 DUP3 ADD SWAP1 POP SWAP2 SWAP1 POP JUMP JUMPDEST PUSH0 PUSH1 0xA0 DUP3 ADD SWAP1 POP PUSH2 0x695 PUSH0 DUP4 ADD DUP8 PUSH2 0x394 JUMP JUMPDEST PUSH2 0x6A2 PUSH1 0x20 DUP4 ADD DUP7 PUSH2 0x394 JUMP JUMPDEST PUSH2 0x6AF PUSH1 0x40 DUP4 ADD DUP6 PUSH2 0x4A2 JUMP JUMPDEST PUSH2 0x6BC PUSH1 0x60 DUP4 ADD DUP5 PUSH2 0x640 JUMP JUMPDEST DUP2 DUP2 SUB PUSH1 0x80 DUP4 ADD MSTORE PUSH2 0x6CD DUP2 PUSH2 0x662 JUMP JUMPDEST SWAP1 POP SWAP6 SWAP5 POP POP POP POP POP JUMP INVALID LOG2 PUSH5 0x6970667358 0x22 SLT KECCAK256 0xD1 CODECOPY 0xC5 SSTORE SGT 0xC5 PUSH13 0x2A16C7E85D02A7682F213FFE39 STATICCALL 0x29 ADDMOD 0xE6 DUP2 0xD SHL DUP9 0xD 0xFC DUP7 0xC5 PUSH5 0x736F6C6343 STOP ADDMOD OR STOP CALLER "
		},
		"gasEstimates": {
			"creation": {
				"codeDepositCost": "361200",
				"executionCost": "397",
				"totalCost": "361597"
			},
			"external": {
				"buyPartsNFT(address,uint256,address)": "infinite"
			}
		},
		"methodIdentifiers": {
			"buyPartsNFT(address,uint256,address)": "5f0b8357"
		}
	},
	"abi": [
		{
			"inputs": [
				{
					"internalType": "address",
					"name": "_mintPartsNFTContract",
					"type": "address"
				},
				{
					"internalType": "uint256",
					"name": "_tokenId",
					"type": "uint256"
				},
				{
					"internalType": "address",
					"name": "_beneficiary",
					"type": "address"
				}
			],
			"name": "buyPartsNFT",
			"outputs": [],
			"stateMutability": "payable",
			"type": "function"
		}
	]
}